:100000000C943E000C9463000C945B000C945B0019
:100010000C945B000C945B000C945B000C945B00F4
:100020000C945B000C945B000C945B000C945B00E4
:100030000C945B000C945D000C945B000C945B00D2
:100040000C945B000C945B000C945B000C945B00C4
:100050000C945B000C945B000C945B000C945B00B4
:100060000C945B000C945B000C945B000C945B00A4
:100070000C945B000C945B000C945B0011241FBE7D
:10008000CFEFD8E0DEBFCDBF11E0A0E0B1E0E6E405
:10009000FEE202C005900D92A83EB107D9F721E01B
:1000A000A8EEB1E001C01D92AA3EB207E1F70E949E
:1000B000F6120C9421170C9400008F9381E080932A
:1000C000E9018F9118958F938FB78F939F938BE44E
:1000D0009DE10197F1F700C0000081E08093E80105
:1000E0009F918F918FBF8F91189510927C0086E819
:1000F00080937A00089510927A00089580917C0090
:10010000807E80937C0080917C006770682B609378
:100110007C0080917A00806480937A0080917A00DC
:1001200084FFFCCF80917A00806180937A002091D7
:1001300078008091790090E0982F8827820F911D98
:100140000895089580EA809300011092B90080E23A
:100150008093B8000895FC0180E88083CF010C945F
:10016000A200982F9370891305C0880F806A80932E
:10017000000108958FEF0895FA0194EA24E890931E
:10018000BC008091BC0087FFFCCF80910001809370
:10019000BB002093BC008091BC0087FFFCCF809106
:1001A000B900883161F784EA8093BC008091BC007B
:1001B00087FFFCCF809100018093BB0084E880938F
:1001C000BC008091BC0087FFFCCF7093BB0084E82B
:1001D0008093BC008091BC0087FFFCCF6093BB0084
:1001E00084E88093BC008091BC0087FFFCCF8091A5
:1001F000BC0087FFFCCF84EA8093BC008091BC00E8
:1002000087FFFCCF809100018F5F8093BB0084E863
:100210008093BC008091BC0087FFFCCF84E8809372
:10022000BC008091BC0087FFFCCF8091BB00808325
:1002300084E98093BC0080E0089594EA34E89093C8
:10024000BC008091BC0087FFFCCF809100018093AF
:10025000BB003093BC008091BC0087FFFCCF809135
:10026000B900883161F784EA8093BC008091BC00BA
:1002700087FFFCCF809100018093BB0084E88093CE
:10028000BC008091BC0087FFFCCF7093BB0084E86A
:100290008093BC008091BC0087FFFCCF6093BB00C3
:1002A00084E88093BC008091BC0087FFFCCF84EA87
:1002B0008093BC008091BC0087FFFCCF809100013F
:1002C0008F5F8093BB0084E88093BC008091BC006A
:1002D00087FFFCCF84EC211105C084E98093BC002A
:1002E00080E00895213009F484E88093BC00909167
:1002F000BC0097FFFCCFFA019091BB009193215075
:10030000AF01E9CF94EA24E89093BC008091BC004F
:1003100087FFFCCF809100018093BB002093BC003D
:100320008091BC0087FFFCCF8091B900883161F7D4
:1003300084EA8093BC008091BC0087FFFCCF809151
:1003400000018093BB0084E88093BC008091BC00D6
:1003500087FFFCCF7093BB0084E88093BC00809142
:10036000BC0087FFFCCF6093BB0084E88093BC0097
:100370008091BC0087FFFCCF4093BB0084E8809352
:10038000BC008091BC0087FFFCCF84E98093BC0057
:1003900080E00895FB01260F372F311DDC018C9181
:1003A0008150990B862B9F2B2817390718F09C0139
:1003B0002F5F3F4F822F8E1B24EA34E82093BC002E
:1003C0009091BC0097FFFCCF909100019093BB00EF
:1003D0003093BC009091BC0097FFFCCF9091B90086
:1003E000983161F794EA9093BC009091BC0097FF1C
:1003F000FCCF909100019093BB0094E89093BC00D7
:100400009091BC0097FFFCCFF093BB0094E89093D1
:10041000BC009091BC0097FFFCCFE093BB0094E838
:100420009093BC009091BC0097FFFCCF982F24E8DC
:10043000911104C094E99093BC000895FA013191A0
:100440003093BB002093BC003091BC0037FFFCCF41
:100450009150AF01EDCFDF92EF92FF920F931F9378
:10046000CF93DF93D82ED92F7B018A01C22F2C2F57
:10047000A801B7018D2D9D2F0E94CA01282F30E0C1
:10048000E20EF31EC81B020F131FC111F0CF80E054
:10049000DF91CF911F910F91FF90EF90DF90089522
:1004A000CF93DF9300D000D0CDB7DEB7E82F84B173
:1004B0008C6084B9ED52FF0BEE0FFF1FE857FE4F23
:1004C000808191819C0150E040E029833A834B83F5
:1004D0005C83CA01B9010E94261620E030E040E0AA
:1004E00054E469837A838B839C8369817A818B81CD
:1004F0009C810E94B4169B01AC0160E074E284EF21
:100500009AE40E94851520E030E040E85FE36983CB
:100510007A838B839C8369817A818B819C810E9401
:10052000181569837A838B839C8369817A818B8197
:100530009C810E94F71567BD0F900F900F900F9050
:10054000DF91CF910895862F93ED960F953210F499
:100550000C94500208952298239817BC08959C018A
:1005600094B19C6094B916BC17BC82E584BD84E04C
:1005700085BDC9010C94AB021F93CF93DF93D82F95
:10058000C92F14E184E40E9450028FE19EE4019798
:10059000F1F700C000008D2F9C2F0E94AB028EE36C
:1005A0000E9450028FE19EE40197F1F700C0000025
:1005B0008D2F9C2F0E94AB0288E40E9450028FE195
:1005C0009EE40197F1F700C000008D2F9C2F0E9440
:1005D000AB021150B9F6DF91CF911F910895CF93DF
:1005E000DF93D82FC92F84E40E9450022FE788E3BD
:1005F00091E0215080409040E1F700C000008D2F35
:100600009C2F0E94AB022FE788E391E021508040AD
:100610009040E1F700C0000084E40E9450022FE700
:1006200088E391E0215080409040E1F700C0000055
:100630008D2F9C2F0E94AB022FE788E391E0215081
:1006400080409040E1F700C0000081E50E94500228
:100650002FE788E391E0215080409040E1F700C00F
:1006600000008D2F9C2F0E94AB022FE788E391E0C2
:10067000215080409040E1F700C00000DF91CF9111
:100680000895CF93DF93D82FC92F8DE20E94500297
:100690002FEF89E698E1215080409040E1F700C0BB
:1006A00000008D2F9C2FDF91CF910C94AB02CF9344
:1006B000DF93EC010E94AB001A821B8223E042E030
:1006C00068E270E0CE0104960E94F70F19861A8640
:1006D00023E042E068E270E0CE0183960E94F70FCB
:1006E0001FA287B18C6087B9DF91CF9108950F93D6
:1006F0001F93CF93DF93EC01162F042F08960E94CF
:10070000C512CE010E94A200CE0101960E94AF0246
:10071000402F612FCE0102960E94960381B1807E08
:1007200081B9DF91CF911F910F910895FC01F89449
:10073000608341838AB1806F8AB9E89AE9E6F0E084
:1007400080818360808378940895CB0130E020E03D
:100750002817390709F40895EFE4F3EC3197F1F71E
:1007600000C000002F5F3F4FF3CF0F93F894222378
:1007700089F05C9A002381F05D9A6093B300409306
:10078000B40081EA8093B00082E08093B100789455
:100790000F9108955C98EECF5D98EFCF0F931F9364
:1007A000CF93DF93EC01162F00E020E04FEF6FEFC7
:1007B0000E94B5032FEF89EF90E0215080409040D8
:1007C000E1F700C000008981412F481B8881612F1B
:1007D000681B20E0CE010E94B503DF91CF911F91ED
:1007E0000F9108950F93FC018181462F481B808152
:1007F000681B00E020E0CF010E94B5030F9108952F
:10080000442369F02091B4002D5D2093B400EFECF7
:10081000F7E03197F1F700C000000C94F20320914B
:10082000B3002D5D2093B300F2CF0F9301E021E0E0
:10083000462F0E94B5030F9108950F931F93CF93F6
:10084000DF93D82FC92F162F01E021E04FEF6FEF74
:100850000E94B5038FE59AEE0197F1F700C0000002
:1008600021E0412F612F8D2F9C2F0E94B503DF9136
:10087000CF911F910F9108950F9300E021E0462F33
:100880000E94B5030F9108950F931F93CF93DF93A9
:10089000D82FC92F162F00E021E04FEF6FEF0E94F5
:1008A000B5038FE59AEE0197F1F700C000004FE025
:1008B000410F21E0612F8D2F9C2F0E94B503DF9106
:1008C000CF911F910F910895EF92FF920F931F9375
:1008D000CF93DF93D82FC92F162F7A0100E021E0A4
:1008E0004FEF6FEF0E94B5038FE59AEE0197F1F796
:1008F00000C0000021E0412F612F8D2F9C2F0E940E
:10090000B503B7018D2F9C2FDF91CF911F910F91D0
:10091000FF90EF900C94A5030F931F93CF93DF9359
:10092000D82FC92F162F01E020E04FEF6FEF0E9464
:10093000B5032FE788E391E0215080409040E1F734
:1009400000C000004FE0410F20E0612F8D2F9C2F51
:100950000E94B503DF91CF911F910F910895FF92EF
:100960000F931F93CF93DF93D82FC92FF42E152FFA
:1009700001E020E0462F0E94B5036F2D712F8D2FCF
:100980009C2FDF91CF911F910F91FF900C94A503A5
:100990000F9300E020E040E060E00E94B5030F917B
:1009A00008950F93CF93DF93D82FC92F00E021E054
:1009B0004DE76DE70E94B5036CE370E08D2F9C2F2F
:1009C0000E94A5038D2F9C2FDF91CF910F910C9446
:1009D000C8040F93CF93DF93D82FC92F01E020E0F5
:1009E00049E969E90E94B50362E370E08D2F9C2F0D
:1009F0000E94A5038D2F9C2FDF91CF910F910C9416
:100A0000C8040F93CF93DF93D82FC92F01E020E0C4
:100A10004FEF6FEF0E94B50361E070E08D2F9C2FC8
:100A20000E94A50320E04DE76DE78D2F9C2F0E94CB
:100A3000B50367E870E08D2F9C2F0E94A5038D2FD2
:100A40009C2FDF91CF910F910C94C804DF92EF920D
:100A5000FF920F931F93CF93DF93E82ED92EF62E9C
:100A6000142FE90100E0011308C0DF91CF911F911D
:100A70000F91FF90EF90DF90089568817981CB010D
:100A80000196998388834F2D8E2D9D2D0E94820182
:100A90008FE097E20197F1F700C000000F5FE3CF0E
:100AA000CF92DF92EF92FF920F931F93CF93DF933A
:100AB000D62EC72EE42EF22EE80110E01F1109C039
:100AC000DF91CF911F910F91FF90EF90DF90CF902A
:100AD000089568817981CB010196998388834E2D91
:100AE0008D2D9C2D0E9482018FE097E20197F1F7F6
:100AF00000C000001F5FE2CFEF92FF920F931F93A1
:100B0000CF93DF9300D0CDB7DEB77C018B011A8283
:100B100019829E012F5F3F4F41E0FC01628DC801A9
:100B20000E9426059E012F5F3F4F41E0F701608143
:100B3000C8010E9426059E012F5F3F4F43E6F70143
:100B40006481C8010E9426059E012F5F3F4F41E04E
:100B5000F7016181C8010E9426059E012F5F3F4F6A
:100B600041E0F701628DC8010E9426059E012F5FBA
:100B70003F4F41E0F7016581C8010E9426059E01B3
:100B80002F5F3F4F43E6F701618DC8010E942605A4
:100B90009E012F5F3F4F41E0F7016581C8010E9430
:100BA00026059E012F5F3F4F41E0F701628DC8018E
:100BB0000E9426059E012F5F3F4F41E0F7016581AE
:100BC000C8010E9426059E012F5F3F4F43E6F701B3
:100BD000618DC8010E9426059E012F5F3F4F41E0B5
:100BE000F7016581C8010E9426059E012F5F3F4FD6
:100BF00041E0F701628DC8010E9426059E012F5F2A
:100C00003F4F41E0F7016581C8010E9426059E0122
:100C10002F5F3F4F43E6F701618DC8010E94260513
:100C20009E012F5F3F4F41E0F7016581C8010E949F
:100C300026059E012F5F3F4F41E0F701628DC801FD
:100C40000E9426059E012F5F3F4F41E0F70165811D
:100C5000C8010E9426059E012F5F3F4F43E0F70128
:100C6000618DC8010E9426059E012F5F3F4F41E024
:100C7000F7016681C8010E9426059E012F5F3F4F44
:100C800047E1F7016285C8010E9426059E012F5F9A
:100C90003F4F41E0F7016781C8010E9426059E0190
:100CA0002F5F3F4F47E4F701618DC8010E94260581
:100CB0009E012F5F3F4F41E0F7016581C8010E940F
:100CC00026059E012F5F3F4F41E0F701628DC8016D
:100CD0000E9426059E012F5F3F4F41E0F70165818D
:100CE000C8010E9426059E012F5F3F4F43E0F70198
:100CF000618DC8010E9426059E012F5F3F4F41E094
:100D0000F7016385C8010E9426059E012F5F3F4FB2
:100D100047E1F701618DC8010E9426059E012F5F02
:100D20003F4F41E0F7016385C8010E9426059E01FF
:100D30002F5F3F4F47E4F701618DC8010E942605F0
:100D40009E012F5F3F4F41E0F7016581C8010E947E
:100D500026059E012F5F3F4F41E0F701628DC801DC
:100D60000E9426059E012F5F3F4F41E0F7016581FC
:100D7000C8010E9426059E012F5F3F4F43E0F70107
:100D8000618DC8010E9426059E012F5F3F4F41E003
:100D9000F7016385C8010E9426059E012F5F3F4F22
:100DA00047E1F701618DC8010E9426059E012F5F72
:100DB0003F4F41E0F7016385C8010E9426059E016F
:100DC0002F5F3F4F49E0F701618DC8010E94260562
:100DD0009E012F5F3F4F41E0F7016485C8010E94EB
:100DE00026059E012F5F3F4F44E3F7016089C8014C
:100DF0000E9426059E012F5F3F4F41E0F701658568
:100E0000C8010E9426059E012F5F3F4F48E0F70171
:100E1000618DC8010E9426059E012F5F3F4F41E072
:100E2000F7016581C8010E9426059E012F5F3F4F93
:100E300041E0F701628DC8010E9426059E012F5FE7
:100E40003F4F41E0F7016581C8010E9426059E01E0
:100E50002F5F3F4F43E0F701618DC8010E942605D7
:100E60009E012F5F3F4F41E0F7016385C8010E945B
:100E700026059E012F5F3F4F47E1F701618DC801B5
:100E80000E9426059E012F5F3F4F41E0F7016385D9
:100E9000C8010E9426059E012F5F3F4F49E0F701E0
:100EA000618DC8010E9426059E012F5F3F4F41E0E2
:100EB000F7016189C8010E9426059E012F5F3F4FFF
:100EC00044E3F701618DC8010E9426059E012F5F52
:100ED0003F4F41E0F7016189C8010E9426059E014C
:100EE0002F5F3F4F48E0F701618DC8010E94260542
:100EF0009E012F5F3F4F41E0F7016581C8010E94CD
:100F000026059E012F5F3F4F41E0F701628DC8012A
:100F10000E9426059E012F5F3F4F41E0F70165814A
:100F2000C8010E9426059E012F5F3F4F43E0F70155
:100F3000618DC8010E9426059E012F5F3F4F41E051
:100F4000F7016385C8010E9426059E012F5F3F4F70
:100F500047E1F701618DC8010E9426059E012F5FC0
:100F60003F4F41E0F7016385C8010E9426059E01BD
:100F70002F5F3F4F49E0F701618DC8010E942605B0
:100F80009E012F5F3F4F41E0F7016189C8010E9438
:100F900026059E012F5F3F4F44E3F701618DC80195
:100FA0000E9426059E012F5F3F4F41E0F7016189B6
:100FB000C8010E9426059E012F5F3F4F48E0F701C0
:100FC000618DC8010E9426059E012F5F3F4F41E0C1
:100FD000F7016581C8010E9426059E012F5F3F4FE2
:100FE00041E0F701628DC8010E9426059E012F5F36
:100FF0003F4F41E0F7016581C8010E9426059E012F
:101000002F5F3F4F43E0F701618DC8010E94260525
:101010009E012F5F3F4F41E0F7016385C8010E94A9
:1010200026059E012F5F3F4F47E1F701618DC80103
:101030000E9426059E012F5F3F4F41E0F701638527
:10104000C8010E9426059E012F5F3F4F49E0F7012E
:10105000618DC8010E9426059E012F5F3F4F41E030
:10106000F7016189C8010E9426059E012F5F3F4F4D
:1010700044E3F701618DC8010E9426059E012F5FA0
:101080003F4F41E0F7016189C8010E9426059E019A
:101090002F5F3F4F48E0F701618DC8010E94260590
:1010A0009E012F5F3F4F41E0F7016581C8010E941B
:1010B00026059E012F5F3F4F41E0F701628DC80179
:1010C0000E9426059E012F5F3F4F41E0F701658199
:1010D000C8010E9426059E012F5F3F4F43E0F701A4
:1010E000618DC8010E9426059E012F5F3F4F41E0A0
:1010F000F7016385C8010E9426059E012F5F3F4FBF
:1011000047E1F701618DC8010E9426059E012F5F0E
:101110003F4F41E0F7016385C8010E9426059E010B
:101120002F5F3F4F49E0F701618DC8010E942605FE
:101130009E012F5F3F4F41E0F7016189C8010E9486
:1011400026059E012F5F3F4F44E3F701618DC801E3
:101150000E9426059E012F5F3F4F41E0F701618904
:10116000C8010E9426059E012F5F3F4F48E0F7010E
:10117000618DC8010E9426059E012F5F3F4F41E00F
:10118000F7016581C8010E9426059E012F5F3F4F30
:1011900041E0F701628DC8010E9426059E012F5F84
:1011A0003F4F41E0F7016581C8010E9426059E017D
:1011B0002F5F3F4F43E0F701618DC8010E94260574
:1011C0009E012F5F3F4F41E0F7016385C8010E94F8
:1011D00026059E012F5F3F4F47E1F701618DC80152
:1011E0000E9426059E012F5F3F4F41E0F701638576
:1011F000C8010E9426059E012F5F3F4F49E0F7017D
:10120000618DC8010E9426059E012F5F3F4F41E07E
:10121000F7016189C8010E9426059E012F5F3F4F9B
:1012200044E3F701618DC8010E9426059E012F5FEE
:101230003F4F41E0F7016189C8010E9426059E01E8
:101240002F5F3F4F48E0F701618DC8010E942605DE
:101250009E012F5F3F4F41E0F7016581C8010E9469
:1012600026059E012F5F3F4F41E0F701628DC801C7
:101270000E9426059E012F5F3F4F41E0F7016581E7
:10128000C8010E9426059E012F5F3F4F43E0F701F2
:10129000618DC8010E9426059E012F5F3F4F41E0EE
:1012A000F7016385C8010E9426059E012F5F3F4F0D
:1012B00041E2F701618DC8010E9426059E012F5F62
:1012C0003F4F41E0F7016189C8010E9426059E0158
:1012D0002F5F3F4F44E3F701618DC8010E9426054F
:1012E0009E012F5F3F4F41E0F7016189C8010E94D5
:1012F00026059E012F5F3F4F48E0F701618DC80131
:101300000E9426059E012F5F3F4F41E0F701658156
:10131000C8010E9426059E012F5F3F4F41E0F70163
:10132000628DC8010E9426059E012F5F3F4F41E05C
:10133000F7016581C8010E9426059E012F5F3F4F7E
:1013400043E0F701618DC8010E9426059E012F5FD1
:101350003F4F41E0F7016385C8010E9426059E01C9
:101360002F5F3F4F4CE1F701618DC8010E942605B8
:101370009E012F5F3F4F45E0F7016089C8010E9441
:1013800026059E012F5F3F4F41E0F7016289C801AA
:101390000E9426059E012F5F3F4F44E3F701618DB8
:1013A000C8010E9426059E012F5F3F4F41E0F701D3
:1013B0006189C8010E9426059E012F5F3F4F48E0CA
:1013C000F701618DC8010E9426059E012F5F3F4FE6
:1013D00041E0F7016581C8010E9426059E012F5F4B
:1013E0003F4F41E0F701628DC8010E9426059E0132
:1013F0002F5F3F4F41E0F7016581C8010E9426053C
:101400009E012F5F3F4F43E0F701618DC8010E94AD
:1014100026059E012F5F3F4F41E0F7016385C8011C
:101420000E9426059E012F5F3F4F41E2F701618D2B
:10143000C8010E9426059E012F5F3F4F41E0F70142
:101440006189C8010E9426059E012F5F3F4F44E33A
:10145000F701618DC8010E9426059E012F5F3F4F55
:1014600041E0F7016189C8010E9426059E012F5FB6
:101470003F4F48E0F701618DC8010E9426059E019B
:101480002F5F3F4F41E0F7016581C8010E942605AB
:101490009E012F5F3F4F41E0F701628DC8010E941E
:1014A00026059E012F5F3F4F41E0F7016581C8018E
:1014B0000E9426059E012F5F3F4F43E0F701618D9B
:1014C000C8010E9426059E012F5F3F4F41E0F701B2
:1014D0006385C8010E9426059E012F5F3F4F47E1AB
:1014E000F701618DC8010E9426059E012F5F3F4FC5
:1014F00041E0F7016385C8010E9426059E012F5F28
:101500003F4F49E0F701618DC8010E9426059E0109
:101510002F5F3F4F41E0F7016189C8010E94260516
:101520009E012F5F3F4F44E3F701618DC8010E9488
:1015300026059E012F5F3F4F41E0F7016189C801F9
:101540000E9426059E012F5F3F4F48E0F701618D05
:10155000C8010E9426059E012F5F3F4F41E0F70121
:101560006581C8010E9426059E012F5F3F4F41E023
:10157000F701628DC8010E9426059E012F5F3F4F33
:1015800041E0F7016581C8010E9426059E012F5F99
:101590003F4F43E0F701618DC8010E9426059E017F
:1015A0002F5F3F4F41E0F7016385C8010E94260588
:1015B0009E012F5F3F4F47E1F701618DC8010E94F7
:1015C00026059E012F5F3F4F41E0F7016385C8016B
:1015D0000E9426059E012F5F3F4F49E0F701618D74
:1015E000C8010E9426059E012F5F3F4F41E0F70191
:1015F0006189C8010E9426059E012F5F3F4F44E389
:10160000F701618DC8010E9426059E012F5F3F4FA3
:1016100041E0F7016189C8010E9426059E012F5F04
:101620003F4F48E0F701618DC8010E9426059E01E9
:101630002F5F3F4F41E0F7016581C8010E942605F9
:101640009E012F5F3F4F41E0F701628DC8010E946C
:1016500026059E012F5F3F4F41E0F7016581C801DC
:101660000E9426059E012F5F3F4F43E0F701618DE9
:10167000C8010E9426059E012F5F3F4F41E0F70100
:101680006385C8010E9426059E012F5F3F4F47E1F9
:10169000F701618DC8010E9426059E012F5F3F4F13
:1016A00041E0F7016385C8010E9426059E012F5F76
:1016B0003F4F49E0F701618DC8010E9426059E0158
:1016C0002F5F3F4F41E0F7016189C8010E94260565
:1016D0009E012F5F3F4F44E3F701618DC8010E94D7
:1016E00026059E012F5F3F4F41E0F7016189C80148
:1016F0000E9426059E012F5F3F4F48E0F701618D54
:10170000C8010E9426059E012F5F3F4F41E0F7016F
:101710006581C8010E9426059E012F5F3F4F41E071
:10172000F701628DC8010E9426059E012F5F3F4F81
:1017300041E0F7016581C8010E9426059E012F5FE7
:101740003F4F43E0F701618DC8010E9426059E01CD
:101750002F5F3F4F41E0F7016385C8010E942605D6
:101760009E012F5F3F4F47E1F701618DC8010E9445
:1017700026059E012F5F3F4F41E0F7016385C801B9
:101780000E9426059E012F5F3F4F49E0F701618DC2
:10179000C8010E9426059E012F5F3F4F41E0F701DF
:1017A0006189C8010E9426059E012F5F3F4F44E3D7
:1017B000F701618DC8010E9426059E012F5F3F4FF2
:1017C00041E0F7016189C8010E9426059E012F5F53
:1017D0003F4F48E0F701618DC8010E9426059E0138
:1017E0002F5F3F4F41E0F7016581C8010E94260548
:1017F0009E012F5F3F4F41E0F701628DC8010E94BB
:1018000026059E012F5F3F4F41E0F7016581C8012A
:101810000E9426059E012F5F3F4F43E0F701618D37
:10182000C8010E9426059E012F5F3F4F41E0F7014E
:101830006385C8010E9426059E012F5F3F4F47E147
:10184000F701618DC8010E9426059E012F5F3F4F61
:1018500041E0F7016385C8010E9426059E012F5FC4
:101860003F4F49E0F701618DC8010E9426059E01A6
:101870002F5F3F4F41E0F7016189C8010E942605B3
:101880009E012F5F3F4F44E3F701618DC8010E9425
:1018900026059E012F5F3F4F41E0F7016189C80196
:1018A0000E9426059E012F5F3F4F48E0F701618DA2
:1018B000C8010E9426059E012F5F3F4F41E0F701BE
:1018C0006581C8010E9426059E012F5F3F4F41E0C0
:1018D000F701628DC8010E9426059E012F5F3F4FD0
:1018E00041E0F7016581C8010E9426059E012F5F36
:1018F0003F4F43E0F701618DC8010E9426059E011C
:101900002F5F3F4F41E0F7016385C8010E94260524
:101910009E012F5F3F4F47E1F701618DC8010E9493
:1019200026059E012F5F3F4F41E0F7016385C80107
:101930000E9426059E012F5F3F4F49E0F701618D10
:10194000C8010E9426059E012F5F3F4F41E0F7012D
:101950006685C8010E9426059E012F5F3F4F44E324
:10196000F7016089C8010E9426059E012F5F3F4F45
:1019700041E0F7016785C8010E9426059E012F5F9F
:101980003F4F48E0F701618DC8010E9426059E0186
:101990002F5F3F4F41E0F7016581C8010E94260596
:1019A0009E012F5F3F4F41E0F701628DC8010E9409
:1019B00026059E012F5F3F4F41E0F7016581C80179
:1019C0000E9426059E012F5F3F4F43E0F701618D86
:1019D000C8010E9426059E012F5F3F4F41E0F7019D
:1019E0006385C8010E9426059E012F5F3F4F47E196
:1019F000F701618DC8010E9426059E012F5F3F4FB0
:101A000041E0F7016385C8010E9426059E012F5F12
:101A10003F4F47E4F701618DC8010E9426059E01F2
:101A20002F5F3F4F41E0F7016581C8010E94260505
:101A30009E012F5F3F4F41E0F701628DC8010E9478
:101A400026059E012F5F3F4F41E0F7016581C801E8
:101A50000E9426059E012F5F3F4F43E0F701618DF5
:101A6000C8010E9426059E012F5F3F4F41E0F7010C
:101A70006085C8010E9426059E012F5F3F4F47E108
:101A8000F7016285C8010E9426059E012F5F3F4F26
:101A900041E0F7016185C8010E9426059E012F5F84
:101AA0003F4F47E4F701618DC8010E9426059E0162
:101AB0002F5F3F4F41E0F7016581C8010E94260575
:101AC0009E012F5F3F4F41E0F701628DC8010E94E8
:101AD00026059E012F5F3F4F41E0F7016581C80158
:101AE0000E9426059E012F5F3F4F43E6F701618D5F
:101AF000C8010E9426059E012F5F3F4F41E0F7017C
:101B00006581C8010E9426059E012F5F3F4F41E07D
:101B1000F701628DC8010E9426059E012F5F3F4F8D
:101B200041E0F7016581C8010E9426059E012F5FF3
:101B30003F4F43E6F701618DC8010E9426059E01D3
:101B40002F5F3F4F41E0F7016581C8010E942605E4
:101B50009E012F5F3F4F41E0F701628DC8010E9457
:101B600026059E012F5F3F4F41E0F7016281C801CA
:101B70000E9426059E012F5F3F4F43E6F7016481D7
:101B8000C8010E9426059E012F5F3F4F41E0F701EB
:101B90006381C8010E9426059E012F5F3F4F41E0EF
:101BA000F701628DC8010E9426050F900F90DF910A
:101BB000CF911F910F91FF90EF9008956F927F92B8
:101BC0008F929F92AF92BF92CF92DF92EF92FF924D
:101BD0000F931F93CF93DF937C01D62EC72E922EA7
:101BE0008A01812C84E5A82E88E0B82E89100FC0C8
:101BF000DF91CF911F910F91FF90EF90DF90CF90E9
:101C0000BF90AF909F908F907F906F900895F80154
:101C10007080711004C083940C5F1F4FE7CFC181A7
:101C2000D281CE32D10520F0FDE2CF2F80E0D82F37
:101C3000F8018381811123C0C457DD4FF701438927
:101C4000BE018D2D9C2D0E9482018FE097E20197AD
:101C5000F1F700C00000612CCA59DF4FF70141893C
:101C6000BE018D2D9C2D0E9482018FE097E201978D
:101C7000F1F700C0000063946710EECFCCCFF50100
:101C8000EC1BFD0BEF01F7014489BE018D2D9C2D4E
:101C90000E9482018FE097E20197F1F700C00000F7
:101CA000612CC656D109F7014189BE018D2D9C2DAD
:101CB0000E9482018FE097E20197F1F700C00000D7
:101CC00063946710EECFA7CFEF92FF920F931F930D
:101CD000CF93DF9300D0CDB7DEB77C018B01842F8B
:101CE00090E0F701658921119CC0F6E64F9FA001A5
:101CF000112448555E4F5A8349839E012F5F3F4F01
:101D000043E0C8010E94260589819A818E599F4F20
:101D10009A8389839E012F5F3F4F41E0F7016689D7
:101D2000C8010E9426059E012F5F3F4F43E0F70147
:101D3000618DC8010E9426059E012F5F3F4F41E043
:101D4000F7016789C8010E94260589819A81805A16
:101D50009F4F9A8389839E012F5F3F4F41E0F70198
:101D60006581C8010E9426059E012F5F3F4F45E017
:101D7000F701618DC8010E9426059E012F5F3F4F2C
:101D800041E0F7016581C8010E94260589819A8199
:101D9000815A9F4F9A8389839E012F5F3F4F41E075
:101DA000F701608DC8010E9426059E012F5F3F4FFD
:101DB00044E0F701618DC8010E9426059E012F5F56
:101DC0003F4F41E0F701608DC8010E9426058981DF
:101DD0009A818F599F4F9A8389839E012F5F3F4F2E
:101DE00041E0F7016789C8010E9426059E012F5F27
:101DF0003F4F43E0F7016589C8010E9426059E0117
:101E00002F5F3F4F41E0F7016689C8010E94260518
:101E10000F900F90DF91CF911F910F91FF90EF9056
:101E200008952DE030E0281B390B46E6429FC001A3
:101E3000439F900D112488559E4F9A8389839E015C
:101E40002F5F3F4F43E0C8010E94260589819A8198
:101E50008E599F4F9A8389839E012F5F3F4F41E0A8
:101E6000F7016689C8010E9426059E012F5F3F4F3A
:101E700043E0F701618DC8010E9426059E012F5F96
:101E80003F4F41E0F7016789C8010E94260589811B
:101E90009A81805A9F4F9A8389839E012F5F3F4F7B
:101EA00041E0F701608DC8010E9426059E012F5F69
:101EB0003F4F44E0F701618DC8010E9426059E0155
:101EC0002F5F3F4F41E0F701608DC8010E9426055A
:101ED00089819A81805A9F4F9A8389839E012F5FBF
:101EE0003F4F41E0F7016581C8010E9426059E0130
:101EF0002F5F3F4F45E0F701618DC8010E94260525
:101F00009E012F5F3F4F41E0F7016581C8010E94AC
:101F1000260589819A81805A9F4F5DCF7F928F924B
:101F20009F92AF92BF92CF92DF92EF92FF920F9368
:101F30001F93CF93DF9300D0CDB7DEB75C01762E31
:101F4000C72E7A01D22E4E0182E0880E911CC40168
:101F50000E94C51210E000E094E0E90EF11CC801F7
:101F6000887F80179107D1F5C7010E941A10AE0132
:101F70004F5F5F4FB801872D9C2D0E94BC00698187
:101F800084E0689FB0011124655E7F4F6A0D7B1D60
:101F9000C4010E94DB128FE493EC0197F1F700C0BB
:101FA00000000F5F1F4F0D359AE01907C1F6DD20C5
:101FB00029F062ED71E0C4010E94DB120F900F90D6
:101FC000DF91CF911F910F91FF90EF90DF90CF9015
:101FD000BF90AF909F908F907F900895C8018C7FA5
:101FE0008017910721F6C7010E94FD0FC0CFFC01A9
:101FF00071836083428323830895FC01A081B181B2
:102000004C91228181E090E0BC0102C0660F771FF5
:102010002A95E2F79B01209524232C93A081B1817E
:102020002C91338101C0880F3A95EAF7809582237D
:102030008C930895FC01A081B1812C91338181E0C2
:1020400090E0AC0101C0440F3A95EAF7242B2C93A1
:10205000A081B1812C91328101C0880F3A95EAF7B5
:10206000809582238C930895FC01A081B1812C91ED
:10207000328181E090E0AC0101C0440F3A95EAF76B
:10208000242B2C93A081B1812C91338101C0880F26
:102090003A95EAF7809582238C930895CF93DF9346
:1020A000D82FC92F0E941A108FE19EE40197F1F7F3
:1020B00000C000008D2F9C2F0E9434108FE19EE401
:1020C0000197F1F700C00000DF91CF910895CF9301
:1020D000DF93D82FC92F0E941A102FEF81EE94E0C2
:1020E000215080409040E1F700C000008D2F9C2FD0
:1020F0000E94FD0F2FEF81EE94E021508040904030
:10210000E1F700C00000DF91CF9108958627682F86
:1021100062956827062E669566956025062E66955B
:1021200060256770082E892F669507946795902D16
:10213000862706946795902586270895FC0161E01F
:1021400021E030E08581833009F495C0019B6383F1
:1021500083818823B9F3019905C081819281019619
:1021600092838183019B20C0818192814E97C8F028
:1021700013821282118284818730D9F4148285817E
:10218000DF01A80FB11D86811B968C931682848176
:10219000853009F03FC0148285818F5F8583178267
:1021A000D1CF12821182CECF85E88A95F1F7000057
:1021B000CFCF019906C0418152814F5F5F4F52835B
:1021C0004183019B13C041815281DA0153971997D2
:1021D00090F4A901082E01C0440F0A94EAF79681F1
:1021E000942B96838F5F84831282118285E88A956F
:1021F000F1F70000C0CF4A50510949305105A0F70E
:10220000A901082E01C0440F0A94EAF7409596816F
:102210009423E7CF019906C0418152814F5F5F4F00
:1022200052834183019B13C041815281DA0153974C
:10223000199790F4A901082E01C0440F0A94EAF7F7
:102240009781942B97838F5F84831282118285E814
:102250008A95F1F700009BCF4A505109493051054A
:10226000A0F7A901082E01C0440F0A94EAF740958F
:1022700097819423E7CF15822585922F9695822FFB
:102280008795882787952485822B9695982F882770
:10229000979587952385822B08953F924F925F9261
:1022A0006F927F928F929F92AF92BF92CF92DF9266
:1022B000EF92FF920F931F93CF93DF93EC018B016B
:1022C000942E852EF22EE32EF0E0E0E0712CCC244B
:1022D000C394D12C55245394412C66246394E2304A
:1022E000F105A9F034F53097F1F0E130F105B9F7D7
:1022F0008C81873009F096C088818F5F88831C822B
:102300008D81FE01E80FF11D8E8180871E828C81F8
:10231000853009F0BAC088818F5F88831C828D81E7
:102320008F5F8D831F828D81833009F05BC01D829A
:1023300003C0E330F10599F64F2D5E2D692D782D00
:10234000CE010E949E105C013884632D8FEF9FEFB9
:102350000E94861069850E9486106A850E948610F8
:10236000A816B90609F0C6C0EE8584E0E89FF00122
:102370001124E00FF11F3082EE8584E0E89FF00128
:102380001124E00FF11F898590E092838183EE850F
:1023900084E0E89FF0011124E00FF11F81E09A85AD
:1023A000911101C080E0838362E58F2D9E2D0E94F4
:1023B000D4128E858F5F8E87863008F4B4CF872D38
:1023C000DF91CF911F910F91FF90EF90DF90CF9011
:1023D000BF90AF909F908F907F906F905F904F9045
:1023E0003F900895019B6B82E0E0F0E08B818823B1
:1023F00009F475CF019905C089819A8101969A8364
:102400008983019B0AC089819A8188970F9718F464
:102410001B82E52DF42D1A82198285E88A95F1F741
:102420000000E4CF019906C029813A812F5F3F4F18
:102430003A832983019B15C029813A81A90143511F
:1024400051094930510590F49601082E01C0220F20
:102450000A94EAF79E81922B9E838F5F8C831A8267
:10246000198285E88A95F1F7000039CF2A503109A1
:1024700029303105A0F79601082E01C0220F0A94D9
:10248000EAF720959E819223E7CF019906C0298122
:102490003A812F5F3F4F3A832983019B15C02981E1
:1024A0003A81A9014351510949305105A0F49601DF
:1024B000082E01C0220F0A94EAF79F81922B9F8376
:1024C0008F5F8C831A82198285E88A95F1F7000064
:1024D000E2E0F0E004CF2A5031092930310590F7CD
:1024E0009601082E01C0220F0A94EAF720959F81D9
:1024F0009223E5CF66E48F2D9E2D0E94D412EE85A7
:1025000084E0E89FF0011124E00FF11F1082128295
:1025100011821382772473944CCFF8945298E89ADE
:10252000E9E6F0E080818360808378940895709379
:1025300089006093880050938B0040938A0081EA61
:102540008093800082E08093810010928200089541
:102550001092850010928400709389006093880027
:102560001092800085E080938100442329F08091BF
:1025700081008860809381001092820082E08093C5
:102580006F0008951092810008951092C5008FEC9D
:102590008093C40080EC8093C00088E18093C100E8
:1025A00086E08093C20008958091C00085FFFCCF33
:1025B0006093C60008950F931F93CF93DF93182F56
:1025C000092FEB016991611105C0DF91CF911F9136
:1025D0000F910895812F902F0E94D412F3CF8091F4
:1025E000C00087FFFCCF8091C6000895CDB7DEB74D
:1025F000CB54D1400FB6F894DEBF0FBECDBF0E98BE
:10260000CE0189519F4F0E94570340E069E1CE01FE
:1026100089519F4F0E9477034E0123EC821A2EEFBF
:10262000920AC4010E9475005E0134ECA31A3EEFC9
:10263000B30AC5010E948D1287E8E1E0F1E0AE0126
:102640004F5F5F4F6A01DA0101900D928A95E1F7C1
:102650007E0158E8E50EF11CF7011082128211820A
:10266000138214821582168217821686C7010F966E
:102670000E94570367EE662E712C6C0E7D1EF2E0F1
:102680006F0E711C68E270E0C3010E94A5031E0179
:1026900029ED221A2EEF320A84E1F10111928A9576
:1026A000E9F710E000E0F1E0CF5BDE4FF883C154C2
:1026B000D140C25CDE4F1882CE53D140CA5BDE4FA0
:1026C0008882C654D140C95BDE4F9882C754D1403E
:1026D000C85BDE4FA882C854D140C75BDE4FB882CA
:1026E000C954D140BC2CAD2CC65BDE4FE882CA5425
:1026F000D140C55BDE4FF882CB54D14091012C5EB6
:102700003F4FCE5BDE4F39832883C254D14077EEF2
:10271000E72EF12CEC0EFD1E34E0E30EF11CE7EE8B
:10272000CE2ED12CCC0EDD1E4FEFC41AD40A87EE6C
:1027300090E08C0F9D1F0896CC5BDE4F99838883B9
:10274000C454D1404101C15CDE4F39822882CF534D
:10275000D14066E0CA5BDE4F8881C654D140C95B78
:10276000DE4F9881C754D1400E947E009695879590
:1027700096958795C15CDE4FE881F981CF53D140B2
:1027800081939193C15CDE4FF983E883CF53D140AD
:10279000CE5BDE4F28813981C254D1402E173F07CE
:1027A000C1F6F10120813181B901F40141915191CA
:1027B0004F014217530708F49A016417750708F48C
:1027C000BA01440E551ECE5BDE4F48815981C2547A
:1027D000D1408416950649F7260F371FF201E21BF8
:1027E000F30B2F0143E0569447944A95E1F70330E9
:1027F000110509F4EBC05CF50130110509F496C030
:102800000230110509F4CBC00115110509F09ACF6A
:102810008333910560F4849701E010E00E9780F413
:10282000F7E0C25CDE4FF883CE53D1408BCF01E09E
:1028300010E093E0C25CDE4F9883CE53D14082CF4C
:10284000EBE0C25CDE4FE883CE53D1407BCF043057
:10285000110509F4CAC00530110509F073CFC7018D
:102860000E941A10BE0169517F4F8B2D9A2D0E9434
:102870007C05C951DF4F8881C75ED040C154DF4F0E
:102880008883CF5BD04026E0AE01415F5E4FBE0142
:1028900061547F4F8B2D9A2D0E94DE0DCE01815405
:1028A0009F4F0E94A100C951DF4F8881C75ED04071
:1028B000C154DF4F8883CF5BD040CF5BDE4F288190
:1028C000C154D140C25CDE4F4881CE53D140BE01DD
:1028D00061547F4F8B2D9A2D0E94640ECE0181543E
:1028E0009F4F0E94A1008091E801882309F42ACF1C
:1028F00088E2FE01E951FF4FDE01A154BF4F019074
:102900000D928A95E1F721E0AE0141545F4FBE017F
:1029100069517F4F8B2D9A2D0E948E0FCE018154CD
:102920009F4F0E94A1001092E8010CCFE83941E0CE
:10293000F40750F068E270E0C3010E94A5036EE660
:10294000C3010E941D04FECEE831F14050F468E25C
:1029500070E0C3010E94A50361E9C3010E94CE0398
:10296000F1CEC3010E94C8048FE996E8E1E08150EE
:102970009040E040E1F700C0000041E068E07DE306
:10298000C85BDE4F8881C854D140C75BDE4F988159
:10299000C954D1400E94A81202E010E0D3CE44975F
:1029A00028F06EE6C3010E943C04CCCEC3010E9415
:1029B000C8049091E90181E09827CF5BDE4F9883AE
:1029C000C154D1401092E80103E0E7CFC7010E9453
:1029D00034108091E801882309F4B4CEC6010E9426
:1029E000EF021092E80104E0D8CFC7010E94FD0F6A
:1029F000CC5BDE4F28813981C454D140AE01455CA7
:102A00005E4FBE01615F7E4FC65BDE4F8881CA5458
:102A1000D140C55BDE4F9881CB54D1400E944D110F
:102A200005E0882309F4B9CFC6010E944103CCCF49
:102A30005058BB27AA270E9430150C947A160E9482
:102A40006C1638F00E94731620F039F49F3F19F489
:102A500026F40C9469160EF4E095E7FB0C946316CB
:102A6000E92F0E948B1658F3BA1762077307840781
:102A7000950720F079F4A6F50C94AD160EF4E095C8
:102A80000B2EBA2FA02D0B01B90190010C01CA0128
:102A9000A0011124FF27591B99F0593F50F4503ED3
:102AA00068F11A16F040A22F232F342F4427585FC5
:102AB000F3CF469537952795A795F0405395C9F7DD
:102AC0007EF41F16BA0B620B730B840BBAF0915095
:102AD000A1F0FF0FBB1F661F771F881FC2F70EC034
:102AE000BA0F621F731F841F48F487957795679507
:102AF000B795F7959E3F08F0B0CF9395880F08F0F3
:102B00009927EE0F9795879508950E9499150C9433
:102B10007A160E94731658F00E946C1640F029F441
:102B20005F3F29F00C94631651110C94AE160C946F
:102B300069160E948B1668F39923B1F3552391F31C
:102B4000951B550BBB27AA2762177307840738F01C
:102B50009F5F5F4F220F331F441FAA1FA9F335D079
:102B60000E2E3AF0E0E832D091505040E695001C2D
:102B7000CAF72BD0FE2F29D0660F771F881FBB1FE7
:102B8000261737074807AB07B0E809F0BB0B802DC5
:102B9000BF01FF2793585F4F3AF09E3F510578F0F1
:102BA0000C9463160C94AE165F3FE4F3983ED4F396
:102BB000869577956795B795F7959F5FC9F7880FC5
:102BC000911D9695879597F90895E1E0660F771F17
:102BD000881FBB1F621773078407BA0720F0621BA8
:102BE000730B840BBA0BEE1F88F7E09508950E94D3
:102BF000931688F09F5798F0B92F9927B751B0F0E6
:102C0000E1F0660F771F881F991F1AF0BA95C9F770
:102C100014C0B13091F00E94AD16B1E008950C944B
:102C2000AD16672F782F8827B85F39F0B93FCCF3FE
:102C3000869577956795B395D9F73EF490958095ED
:102C4000709561957F4F8F4F9F4F0895E89409C00D
:102C500097FB3EF490958095709561957F4F8F4FCF
:102C60009F4F9923A9F0F92F96E9BB279395F695E5
:102C7000879577956795B795F111F8CFFAF4BB0F63
:102C800011F460FF1BC06F5F7F4F8F4F9F4F16C0C7
:102C9000882311F096E911C0772321F09EE8872F51
:102CA000762F05C0662371F096E8862F70E060E00D
:102CB0002AF09A95660F771F881FDAF7880F969586
:102CC000879597F9089597F99F6780E870E060E02D
:102CD00008959FEF80EC089500240A9416161706B5
:102CE00018060906089500240A94121613061406FD
:102CF00005060895092E0394000C11F4882352F060
:102D0000BB0F40F4BF2B11F460FF04C06F5F7F4F17
:102D10008F4F9F4F089557FD9058440F551F59F0FE
:102D20005F3F71F04795880F97FB991F61F09F3FB8
:102D300079F087950895121613061406551FF2CFE1
:102D40004695F1DF08C0161617061806991FF1CF31
:102D500086957105610508940895E894BB27662758
:102D60007727CB0197F908950E94C7160C947A161D
:102D70000E946C1638F00E94731620F0952311F013
:102D80000C9463160C94691611240C94AE160E94D0
:102D90008B1670F3959FC1F3950F50E0551F629FFE
:102DA000F001729FBB27F00DB11D639FAA27F00DA4
:102DB000B11DAA1F649F6627B00DA11D661F829FCB
:102DC0002227B00DA11D621F739FB00DA11D621FB0
:102DD000839FA00D611D221F749F3327A00D611DCD
:102DE000231F849F600D211D822F762F6A2F1124AF
:102DF0009F5750409AF0F1F088234AF0EE0FFF1FE2
:102E0000BB1F661F771F881F91505040A9F79E3F38
:102E1000510580F00C9463160C94AE165F3FE4F3FA
:102E2000983ED4F3869577956795B795F795E7958E
:102E30009F5FC1F7FE2B880F911D9695879597F997
:062E40000895F894FFCF95
:102E4600A0000102030405060708090A0B0C0D0E73
:102E56000F101112131415161718191AE2948C0074
:102E6600E2949000E2949400E2949800E294800048
:102E7600E2948200E2948F00E2949300E294970039
:102E8600E2949B00E2948100E2948300E295940030
:102E9600E2959700E2959A00E2959D00E2959000F2
:102EA600E2959100E295A300E295A600E295A900BD
:102EB6005F000000E295B100E295B200E296A40040
:102EC600200000000A0000006E0075007B008300F1
:102ED6008B0093009C00A500AF00B900C400D00091
:102EE600DC00E900F70006011501260137014A0159
:102EF6005D01720188019F01B801D201EE010B024A
:102F06002A024B026E029302BA02E20210033F0348
:102F160070034E4F4D20445520524F424F543A2095
:082F260057414C4C2D500A00EC
:00000001FF
