:100000000C943E000C9472000C945B000C945B000A
:100010000C945B000C945B000C945B000C945B00F4
:100020000C945B000C945B000C945B000C945B00E4
:100030000C945B000C945D000C945B000C945B00D2
:100040000C9491000C945B000C945B000C945B008E
:100050000C945B000C945B000C945B000C945B00B4
:100060000C945B000C945B000C945B000C945B00A4
:100070000C945B000C945B000C945B0011241FBE7D
:10008000CFEFD8E0DEBFCDBF11E0A0E0B1E0E6E306
:10009000F4E302C005900D92AA3EB107D9F721E022
:1000A000AAEEB1E001C01D92A03FB207E1F70E94A5
:1000B000BD140C94101A0C9400008F938FB78F937B
:1000C0009F938091EC019091ED0101969093ED0149
:1000D0008093EC0181E0809300019F918F918FBF0D
:1000E0008F9118951F921FB61F9211248F939F9383
:1000F0008FE59AEE0197F1F700C000008091EA01C8
:100100009091EB018630910531F487E090E0909377
:10011000EB018093EA019F918F911F901FBE1F906A
:1001200018958F938FB78F939F938091EE01909145
:10013000EF0101969093EF018093EE019F918F91D3
:100140008FBF8F911895039B03C041E00C94550617
:10015000019B02C040E0FACF0C944706CF92DF9299
:10016000FF920F931F93CF93DF93D82FF92EC62FB3
:1001700085E0689F6001112410E000E00C151D056A
:1001800041F4DF91CF911F910F91FF90DF90CF90BD
:1001900008956C2F8D2F9F2D0E94A3008FEC97E068
:1001A0000197F1F700C000000F5F1F4FE7CFDF920C
:1001B000EF92FF920F931F93CF93DF93EC018B018C
:1001C000D42E6FEF0E9447062FE788E391E021507D
:1001D00080409040E1F700C00000F12CE12CE016D7
:1001E000F10641F4DF91CF911F910F91FF90EF90B5
:1001F000DF9008956D2DCE010E94A3008FEC97E053
:100200000197F1F700C000009FEFE91AF90AE7CF64
:1002100003990AC0049908C0019903C0009B0C947B
:10022000470640E00C94550641E0FCCFCF92DF92A8
:10023000EF92FF920F931F93CF93DF93EC01E62E83
:10024000F42E152F69011092EF011092EE0141E09A
:100250006FEF70E08F2D952F0E9432146FEFCE015B
:100260000E9447062FE788E391E0215080409040AC
:10027000E1F700C00000009938C0019936C002992A
:1002800034C0039932C0049930C08F2D912F0E9441
:1002900040148091EE019091EF01DD24EE8D8837BE
:1002A000910540F524E0E29FF0011124EC0FFD1FC1
:1002B00082E08283D482C38205838E8D8F5F8E8F8E
:1002C000CE010E941D078FEF99E628E181509040F2
:1002D0002040E1F700C00000DF91CF911F910F9106
:1002E000FF90EF90DF90CF9008956E2DCE010E9489
:1002F0000801C1CF8091EE019091EF0124E0E29FCF
:10030000F0011124DF011296AC0FBD1FEC0FFD1F91
:10031000883C910538F483E08283D482C3821396AB
:100320000C93CBCF84E0F8CFAF92BF92CF92DF9205
:10033000EF92FF920F931F93CF93DF93D82FC92F84
:10034000F62ED42EB22EC32EA02E0E941D072FEF04
:1003500084E39CE0215080409040E1F700C0000021
:1003600065E06F0D01E020E040E08D2F9C2F0E94A2
:100370000A062FEF89E698E1215080409040E1F78E
:1003800000C00000029BFECF8D2F9C2F0E941D07F6
:100390002FEF84E39CE0215080409040E1F700C0C3
:1003A00000000E2D2A2D312F4B2D5C2D6F2D8D2F02
:1003B0009C2F0E94160101E021E040ED68EC8D2F9A
:1003C0009C2F0E940A062FE788E391E0215080408D
:1003D0009040E1F700C0000021E04F2D67EE6F0D67
:1003E0008D2F9C2F0E940A06009BFECF019BFCCF05
:1003F000029BFACF039BF8CF049BF6CF0099FECF68
:100400000199FCCF0299FACF0399F8CF0499F6CF5E
:100410006FEF8D2F9C2F0E9447068FE19EE401977E
:10042000F1F700C000008D2F9C2F0E941D079FEF49
:1004300024E38CE0915020408040E1F700C00000B0
:100440006FEF8D2F9C2F0E9447069FEF23EF81E0D7
:10045000915020408040E1F700C000006F2D8D2FAB
:100460009C2F0E9423069FEF2EE984E291502040AA
:100470008040E1F700C000008D2F9C2F0E941D07D7
:100480009FEF24E38CE0915020408040E1F700C0D2
:1004900000006FEF8D2F9C2F0E9499069FE728E3A5
:1004A00081E0915020408040E1F700C000006D2DB8
:1004B0008D2F9C2F0E9499069FEF24E38CE0915092
:1004C00020408040E1F700C00000029BFECF8D2F4E
:1004D0009C2F0E941D079FEF24E38CE09150204049
:1004E0008040E1F700C000006FEF8D2F9C2F0E942D
:1004F00047069FE728E381E0915020408040E1F7E4
:1005000000C00000DF91CF911F910F91FF90EF90FD
:10051000DF90CF90BF90AF9008951F93CF93DF935C
:10052000D82FC92F142F0E94AE00612F8D2F9C2F22
:100530000E94E106029BFECF8D2F9C2F0E941D077B
:100540002FEF84E39CE0215080409040E1F700C011
:1005500000006FEF8D2F9C2F0E9447062FEF89EF31
:1005600090E0215080409040E1F700C00000DF9112
:10057000CF911F9108951F93CF93DF93D82FC92F49
:10058000142F049B14C02FEF84E39CE02150804083
:100590009040E1F700C0000002991FC002991DC001
:1005A0008D2F9C2FDF91CF911F910C948D02009B7A
:1005B00018C00E94AE00612F8D2F9C2F0E949906BB
:1005C0002FEF89E698E1215080409040E1F700C08C
:1005D0000000019902C0029BFCCFDF91CF911F91D7
:1005E0000895DF91CF911F910C94A300089580EAA4
:1005F000809302011092B90080E28093B8000895C0
:10060000FC0180E88083CF010C94F702982F93704F
:10061000891305C0880F806A8093020108958FEFC7
:100620000895FA0194EA24E89093BC008091BC00FC
:1006300087FFFCCF809102018093BB002093BC0018
:100640008091BC0087FFFCCF8091B900883161F7B1
:1006500084EA8093BC008091BC0087FFFCCF80912E
:1006600002018093BB0084E88093BC008091BC00B1
:1006700087FFFCCF7093BB0084E88093BC0080911F
:10068000BC0087FFFCCF6093BB0084E88093BC0074
:100690008091BC0087FFFCCF8091BC0087FFFCCF1E
:1006A00084EA8093BC008091BC0087FFFCCF8091DE
:1006B00002018F5F8093BB0084E88093BC0080912F
:1006C000BC0087FFFCCF84E88093BC008091BC0015
:1006D00087FFFCCF8091BB00808384E98093BC00BE
:1006E00080E0089594EA34E89093BC008091BC00C7
:1006F00087FFFCCF809102018093BB003093BC0048
:100700008091BC0087FFFCCF8091B900883161F7F0
:1007100084EA8093BC008091BC0087FFFCCF80916D
:1007200002018093BB0084E88093BC008091BC00F0
:1007300087FFFCCF7093BB0084E88093BC0080915E
:10074000BC0087FFFCCF6093BB0084E88093BC00B3
:100750008091BC0087FFFCCF84EA8093BC0080912D
:10076000BC0087FFFCCF809102018F5F8093BB00AC
:1007700084E88093BC008091BC0087FFFCCF84ECB0
:10078000211105C084E98093BC0080E008952130E8
:1007900009F484E88093BC009091BC0097FFFCCFE3
:1007A000FA019091BB0091932150AF01E9CF94EAF7
:1007B00024E89093BC008091BC0087FFFCCF80911F
:1007C00002018093BB002093BC008091BC0087FF96
:1007D000FCCF8091B900883161F784EA8093BC0036
:1007E0008091BC0087FFFCCF809102018093BB0009
:1007F00084E88093BC008091BC0087FFFCCF70939D
:10080000BB0084E88093BC008091BC0087FFFCCFD4
:100810006093BB0084E88093BC008091BC0087FF9C
:10082000FCCF4093BB0084E88093BC008091BC0067
:1008300087FFFCCF84E98093BC0080E00895FB0132
:10084000260F372F311DDC018C918150990B862B9F
:100850009F2B2817390718F09C012F5F3F4F822FDD
:100860008E1B24EA34E82093BC009091BC0097FFD3
:10087000FCCF909102019093BB003093BC0090910B
:10088000BC0097FFFCCF9091B900983161F794EAD2
:100890009093BC009091BC0097FFFCCF9091020117
:1008A0009093BB0094E89093BC009091BC0097FF9C
:1008B000FCCFF093BB0094E89093BC009091BC00F7
:1008C00097FFFCCFE093BB0094E89093BC0090911D
:1008D000BC0097FFFCCF982F24E8911104C094E945
:1008E0009093BC000895FA0131913093BB0020939E
:1008F000BC003091BC0037FFFCCF9150AF01EDCF71
:10090000DF92EF92FF920F931F93CF93DF93D82E36
:10091000D92F7B018A01C22F2C2FA801B7018D2D61
:100920009D2F0E941F04282F30E0E20EF31EC81BEB
:10093000020F131FC111F0CF80E0DF91CF911F9103
:100940000F91FF90EF90DF900895CF93DF9300D049
:1009500000D0CDB7DEB7E82F84B18C6084B9ED52FA
:10096000FF0BEE0FFF1FE657FE4F808191819C0128
:1009700050E040E029833A834B835C83CA01B9018C
:100980000E94151920E030E040E054E469837A8346
:100990008B839C8369817A818B819C810E94A319BE
:1009A0009B01AC0160E074E284EF9AE40E94741849
:1009B00020E030E040E85FE369837A838B839C83A7
:1009C00069817A818B819C810E94071869837A836F
:1009D0008B839C8369817A818B819C810E94E6183C
:1009E00067BD0F900F900F900F90DF91CF910895FA
:1009F000862F93ED960F953210F40C94A50408956C
:100A00002298239817BC08959C0194B19C6094B9D6
:100A100016BC17BC82E584BD84E085BDC9010C9479
:100A200000051F93CF93DF93D82FC92F14E184E4DF
:100A30000E94A5048FE19EE40197F1F700C0000039
:100A40008D2F9C2F0E9400058EE30E94A5048FE14C
:100A50009EE40197F1F700C000008D2F9C2F0E94AB
:100A6000000588E40E94A5048FE19EE40197F1F758
:100A700000C000008D2F9C2F0E9400051150B9F678
:100A8000DF91CF911F910895CF93DF93D82FC92F76
:100A900084E40E94A5042FE788E391E02150804080
:100AA0009040E1F700C000008D2F9C2F0E940005B0
:100AB0002FE788E391E0215080409040E1F700C0AB
:100AC000000084E40E94A5042FE788E391E0215010
:100AD00080409040E1F700C000008D2F9C2F0E94C5
:100AE00000052FE788E391E0215080409040E1F736
:100AF00000C0000081E50E94A5042FE788E391E093
:100B0000215080409040E1F700C000008D2F9C2FC5
:100B10000E9400052FE788E391E02150804090403B
:100B2000E1F700C00000DF91CF910895CF93DF93EC
:100B3000D82FC92F8DE20E94A5042FEF89E698E1F6
:100B4000215080409040E1F700C000008D2F9C2F85
:100B5000DF91CF910C940005CF93DF93EC010E94BD
:100B600000031A821B8223E042E068E270E0CE01BB
:100B700004960E944C1219861A8623E042E068E22D
:100B800070E0CE0183960E944C121FA287B18C6048
:100B900087B9DF91CF9108950F931F93CF93DF9380
:100BA000EC01162F042F08960E948C14CE010E948F
:100BB000F702CE0101960E940405402F612FCE015D
:100BC00002960E94EB0581B1807E81B9DF91CF91C1
:100BD0001F910F910895FC01F894608341838AB1BD
:100BE000806F8AB9E89AE9E6F0E0808183608083CB
:100BF00078940895CB0130E020E02817390709F4F4
:100C00000895EFE4F3EC3197F1F700C000002F5F97
:100C10003F4FF3CF0F93F894222389F05C9A00237F
:100C200081F05D9A6093B3004093B40081EA8093B1
:100C3000B00082E08093B10078940F9108955C98A1
:100C4000EECF5D98EFCF0F931F93CF93DF93EC011F
:100C5000162F00E020E04FEF6FEF0E940A062FEF03
:100C600089EF90E0215080409040E1F700C0000003
:100C70008981412F481B8881612F681B20E0CE01AC
:100C80000E940A06DF91CF911F910F9108950F9353
:100C9000FC018181462F481B8081681B00E020E019
:100CA000CF010E940A060F910895442369F0209114
:100CB000B4002D5D2093B400EFECF7E03197F1F72D
:100CC00000C000000C9447062091B3002D5D2093D6
:100CD000B300F2CF0F9301E021E0462F0E940A06F5
:100CE0000F9108950F931F93CF93DF93D82FC92FA0
:100CF000162F01E021E04FEF6FEF0E940A068FE50B
:100D00009AEE0197F1F700C0000021E0412F612F1A
:100D10008D2F9C2F0E940A06DF91CF911F910F917A
:100D200008950F9300E021E0462F0E940A060F91DC
:100D300008950F931F93CF93DF93D82FC92F162FAA
:100D400000E021E04FEF6FEF0E940A068FE59AEE78
:100D50000197F1F700C000004FE0410F21E0612F43
:100D60008D2F9C2F0E940A06DF91CF911F910F912A
:100D70000895EF92FF920F931F93CF93DF93D82F95
:100D8000C92F162F7A0100E021E04FEF6FEF0E948C
:100D90000A068FE59AEE0197F1F700C0000021E006
:100DA000412F612F8D2F9C2F0E940A06B7018D2F96
:100DB0009C2FDF91CF911F910F91FF90EF900C949A
:100DC000FA050F931F93CF93DF93D82FC92F162FB8
:100DD00001E020E04FEF6FEF0E940A062FE788E363
:100DE00091E0215080409040E1F700C000004FE0CA
:100DF000410F20E0612F8D2F9C2F0E940A06DF916A
:100E0000CF911F910F910895FF920F931F93CF934E
:100E1000DF93D82FC92FF42E152F01E020E0462FA5
:100E20000E940A066F2D712F8D2F9C2FDF91CF917D
:100E30001F910F91FF900C94FA050F9300E020E0B2
:100E400040E060E00E940A060F9108950F93CF934F
:100E5000DF93D82FC92F00E021E04DE76DE70E9416
:100E60000A066CE370E08D2F9C2F0E94FA058D2FEF
:100E70009C2FDF91CF910F910C941D070F93CF936F
:100E8000DF93D82FC92F01E020E049E969E90E94EA
:100E90000A0662E370E08D2F9C2F0E94FA058D2FC9
:100EA0009C2FDF91CF910F910C941D070F93CF933F
:100EB000DF93D82FC92F01E020E04FEF6FEF0E94A2
:100EC0000A0661E070E08D2F9C2F0E94FA0520E059
:100ED0004DE76DE78D2F9C2F0E940A0667E870E0B2
:100EE0008D2F9C2F0E94FA058D2F9C2FDF91CF9183
:100EF0000F910C941D07DF92EF92FF920F931F93B7
:100F0000CF93DF93E82ED92EF62E142FE90100E0BF
:100F1000011308C0DF91CF911F910F91FF90EF90C7
:100F2000DF90089568817981CB0101969983888348
:100F30004F2D8E2D9D2D0E94D7038FE097E20197B4
:100F4000F1F700C000000F5FE3CFCF92DF92EF9286
:100F5000FF920F931F93CF93DF93D62EC72EE42ECD
:100F6000F22EE80110E01F1109C0DF91CF911F910F
:100F70000F91FF90EF90DF90CF9008956881798175
:100F8000CB010196998388834E2D8D2D9C2D0E9437
:100F9000D7038FE097E20197F1F700C000001F5FD1
:100FA000E2CFEF92FF920F931F93CF93DF9300D086
:100FB000CDB7DEB77C018B011A8219829E012F5FAB
:100FC0003F4F41E0FC01628DC8010E947B079E01FA
:100FD0002F5F3F4F41E0F7016081C8010E947B070E
:100FE0009E012F5F3F4F43E6F7016481C8010E94D5
:100FF0007B079E012F5F3F4F41E0F7016181C801F0
:101000000E947B079E012F5F3F4F41E0F701628DF9
:10101000C8010E947B079E012F5F3F4F41E0F7010F
:101020006581C8010E947B079E012F5F3F4F43E609
:10103000F701618DC8010E947B079E012F5F3F4F22
:1010400041E0F7016581C8010E947B079E012F5F87
:101050003F4F41E0F701628DC8010E947B079E016E
:101060002F5F3F4F41E0F7016581C8010E947B0778
:101070009E012F5F3F4F43E6F701618DC8010E943B
:101080007B079E012F5F3F4F41E0F7016581C8015B
:101090000E947B079E012F5F3F4F41E0F701628D69
:1010A000C8010E947B079E012F5F3F4F41E0F7017F
:1010B0006581C8010E947B079E012F5F3F4F43E679
:1010C000F701618DC8010E947B079E012F5F3F4F92
:1010D00041E0F7016581C8010E947B079E012F5FF7
:1010E0003F4F41E0F701628DC8010E947B079E01DE
:1010F0002F5F3F4F41E0F7016581C8010E947B07E8
:101100009E012F5F3F4F43E0F701618DC8010E94B0
:101110007B079E012F5F3F4F41E0F7016681C801C9
:101120000E947B079E012F5F3F4F47E1F7016285D9
:10113000C8010E947B079E012F5F3F4F41E0F701EE
:101140006781C8010E947B079E012F5F3F4F47E4E4
:10115000F701618DC8010E947B079E012F5F3F4F01
:1011600041E0F7016581C8010E947B079E012F5F66
:101170003F4F41E0F701628DC8010E947B079E014D
:101180002F5F3F4F41E0F7016581C8010E947B0757
:101190009E012F5F3F4F43E0F701618DC8010E9420
:1011A0007B079E012F5F3F4F41E0F7016385C80138
:1011B0000E947B079E012F5F3F4F47E1F701618D42
:1011C000C8010E947B079E012F5F3F4F41E0F7015E
:1011D0006385C8010E947B079E012F5F3F4F47E454
:1011E000F701618DC8010E947B079E012F5F3F4F71
:1011F00041E0F7016581C8010E947B079E012F5FD6
:101200003F4F41E0F701628DC8010E947B079E01BC
:101210002F5F3F4F41E0F7016581C8010E947B07C6
:101220009E012F5F3F4F43E0F701618DC8010E948F
:101230007B079E012F5F3F4F41E0F7016385C801A7
:101240000E947B079E012F5F3F4F47E1F701618DB1
:10125000C8010E947B079E012F5F3F4F41E0F701CD
:101260006385C8010E947B079E012F5F3F4F49E0C5
:10127000F701618DC8010E947B079E012F5F3F4FE0
:1012800041E0F7016485C8010E947B079E012F5F42
:101290003F4F44E3F7016089C8010E947B079E012C
:1012A0002F5F3F4F41E0F7016585C8010E947B0732
:1012B0009E012F5F3F4F48E0F701618DC8010E94FA
:1012C0007B079E012F5F3F4F41E0F7016581C80119
:1012D0000E947B079E012F5F3F4F41E0F701628D27
:1012E000C8010E947B079E012F5F3F4F41E0F7013D
:1012F0006581C8010E947B079E012F5F3F4F43E03D
:10130000F701618DC8010E947B079E012F5F3F4F4F
:1013100041E0F7016385C8010E947B079E012F5FB2
:101320003F4F47E1F701618DC8010E947B079E0195
:101330002F5F3F4F41E0F7016385C8010E947B07A3
:101340009E012F5F3F4F49E0F701618DC8010E9468
:101350007B079E012F5F3F4F41E0F7016189C80184
:101360000E947B079E012F5F3F4F44E3F701618D91
:10137000C8010E947B079E012F5F3F4F41E0F701AC
:101380006189C8010E947B079E012F5F3F4F48E0A3
:10139000F701618DC8010E947B079E012F5F3F4FBF
:1013A00041E0F7016581C8010E947B079E012F5F24
:1013B0003F4F41E0F701628DC8010E947B079E010B
:1013C0002F5F3F4F41E0F7016581C8010E947B0715
:1013D0009E012F5F3F4F43E0F701618DC8010E94DE
:1013E0007B079E012F5F3F4F41E0F7016385C801F6
:1013F0000E947B079E012F5F3F4F47E1F701618D00
:10140000C8010E947B079E012F5F3F4F41E0F7011B
:101410006385C8010E947B079E012F5F3F4F49E013
:10142000F701618DC8010E947B079E012F5F3F4F2E
:1014300041E0F7016189C8010E947B079E012F5F8F
:101440003F4F44E3F701618DC8010E947B079E0175
:101450002F5F3F4F41E0F7016189C8010E947B0780
:101460009E012F5F3F4F48E0F701618DC8010E9448
:101470007B079E012F5F3F4F41E0F7016581C80167
:101480000E947B079E012F5F3F4F41E0F701628D75
:10149000C8010E947B079E012F5F3F4F41E0F7018B
:1014A0006581C8010E947B079E012F5F3F4F43E08B
:1014B000F701618DC8010E947B079E012F5F3F4F9E
:1014C00041E0F7016385C8010E947B079E012F5F01
:1014D0003F4F47E1F701618DC8010E947B079E01E4
:1014E0002F5F3F4F41E0F7016385C8010E947B07F2
:1014F0009E012F5F3F4F49E0F701618DC8010E94B7
:101500007B079E012F5F3F4F41E0F7016189C801D2
:101510000E947B079E012F5F3F4F44E3F701618DDF
:10152000C8010E947B079E012F5F3F4F41E0F701FA
:101530006189C8010E947B079E012F5F3F4F48E0F1
:10154000F701618DC8010E947B079E012F5F3F4F0D
:1015500041E0F7016581C8010E947B079E012F5F72
:101560003F4F41E0F701628DC8010E947B079E0159
:101570002F5F3F4F41E0F7016581C8010E947B0763
:101580009E012F5F3F4F43E0F701618DC8010E942C
:101590007B079E012F5F3F4F41E0F7016385C80144
:1015A0000E947B079E012F5F3F4F47E1F701618D4E
:1015B000C8010E947B079E012F5F3F4F41E0F7016A
:1015C0006385C8010E947B079E012F5F3F4F49E062
:1015D000F701618DC8010E947B079E012F5F3F4F7D
:1015E00041E0F7016189C8010E947B079E012F5FDE
:1015F0003F4F44E3F701618DC8010E947B079E01C4
:101600002F5F3F4F41E0F7016189C8010E947B07CE
:101610009E012F5F3F4F48E0F701618DC8010E9496
:101620007B079E012F5F3F4F41E0F7016581C801B5
:101630000E947B079E012F5F3F4F41E0F701628DC3
:10164000C8010E947B079E012F5F3F4F41E0F701D9
:101650006581C8010E947B079E012F5F3F4F43E0D9
:10166000F701618DC8010E947B079E012F5F3F4FEC
:1016700041E0F7016385C8010E947B079E012F5F4F
:101680003F4F47E1F701618DC8010E947B079E0132
:101690002F5F3F4F41E0F7016385C8010E947B0740
:1016A0009E012F5F3F4F49E0F701618DC8010E9405
:1016B0007B079E012F5F3F4F41E0F7016189C80121
:1016C0000E947B079E012F5F3F4F44E3F701618D2E
:1016D000C8010E947B079E012F5F3F4F41E0F70149
:1016E0006189C8010E947B079E012F5F3F4F48E040
:1016F000F701618DC8010E947B079E012F5F3F4F5C
:1017000041E0F7016581C8010E947B079E012F5FC0
:101710003F4F41E0F701628DC8010E947B079E01A7
:101720002F5F3F4F41E0F7016581C8010E947B07B1
:101730009E012F5F3F4F43E0F701618DC8010E947A
:101740007B079E012F5F3F4F41E0F7016385C80192
:101750000E947B079E012F5F3F4F41E2F701618DA1
:10176000C8010E947B079E012F5F3F4F41E0F701B8
:101770006189C8010E947B079E012F5F3F4F44E3B0
:10178000F701618DC8010E947B079E012F5F3F4FCB
:1017900041E0F7016189C8010E947B079E012F5F2C
:1017A0003F4F48E0F701618DC8010E947B079E0111
:1017B0002F5F3F4F41E0F7016581C8010E947B0721
:1017C0009E012F5F3F4F41E0F701628DC8010E94EB
:1017D0007B079E012F5F3F4F41E0F7016581C80104
:1017E0000E947B079E012F5F3F4F43E0F701618D11
:1017F000C8010E947B079E012F5F3F4F41E0F70128
:101800006385C8010E947B079E012F5F3F4F4CE11B
:10181000F701618DC8010E947B079E012F5F3F4F3A
:1018200045E0F7016089C8010E947B079E012F5F98
:101830003F4F41E0F7016289C8010E947B079E018A
:101840002F5F3F4F44E3F701618DC8010E947B0782
:101850009E012F5F3F4F41E0F7016189C8010E945F
:101860007B079E012F5F3F4F48E0F701618DC80164
:101870000E947B079E012F5F3F4F41E0F70165818A
:10188000C8010E947B079E012F5F3F4F41E0F70197
:10189000628DC8010E947B079E012F5F3F4F41E090
:1018A000F7016581C8010E947B079E012F5F3F4FB2
:1018B00043E0F701618DC8010E947B079E012F5F05
:1018C0003F4F41E0F7016385C8010E947B079E01FD
:1018D0002F5F3F4F41E2F701618DC8010E947B07F6
:1018E0009E012F5F3F4F41E0F7016189C8010E94CF
:1018F0007B079E012F5F3F4F44E3F701618DC801D5
:101900000E947B079E012F5F3F4F41E0F7016189F5
:10191000C8010E947B079E012F5F3F4F48E0F701FF
:10192000618DC8010E947B079E012F5F3F4F41E000
:10193000F7016581C8010E947B079E012F5F3F4F21
:1019400041E0F701628DC8010E947B079E012F5F75
:101950003F4F41E0F7016581C8010E947B079E016E
:101960002F5F3F4F43E0F701618DC8010E947B0765
:101970009E012F5F3F4F41E0F7016385C8010E9440
:101980007B079E012F5F3F4F47E1F701618DC80143
:101990000E947B079E012F5F3F4F41E0F701638567
:1019A000C8010E947B079E012F5F3F4F49E0F7016E
:1019B000618DC8010E947B079E012F5F3F4F41E070
:1019C000F7016189C8010E947B079E012F5F3F4F8D
:1019D00044E3F701618DC8010E947B079E012F5FE0
:1019E0003F4F41E0F7016189C8010E947B079E01DA
:1019F0002F5F3F4F48E0F701618DC8010E947B07D0
:101A00009E012F5F3F4F41E0F7016581C8010E94B1
:101A10007B079E012F5F3F4F41E0F701628DC801B8
:101A20000E947B079E012F5F3F4F41E0F7016581D8
:101A3000C8010E947B079E012F5F3F4F43E0F701E3
:101A4000618DC8010E947B079E012F5F3F4F41E0DF
:101A5000F7016385C8010E947B079E012F5F3F4FFE
:101A600047E1F701618DC8010E947B079E012F5F4E
:101A70003F4F41E0F7016385C8010E947B079E014B
:101A80002F5F3F4F49E0F701618DC8010E947B073E
:101A90009E012F5F3F4F41E0F7016189C8010E941D
:101AA0007B079E012F5F3F4F44E3F701618DC80123
:101AB0000E947B079E012F5F3F4F41E0F701618944
:101AC000C8010E947B079E012F5F3F4F48E0F7014E
:101AD000618DC8010E947B079E012F5F3F4F41E04F
:101AE000F7016581C8010E947B079E012F5F3F4F70
:101AF00041E0F701628DC8010E947B079E012F5FC4
:101B00003F4F41E0F7016581C8010E947B079E01BC
:101B10002F5F3F4F43E0F701618DC8010E947B07B3
:101B20009E012F5F3F4F41E0F7016385C8010E948E
:101B30007B079E012F5F3F4F47E1F701618DC80191
:101B40000E947B079E012F5F3F4F41E0F7016385B5
:101B5000C8010E947B079E012F5F3F4F49E0F701BC
:101B6000618DC8010E947B079E012F5F3F4F41E0BE
:101B7000F7016189C8010E947B079E012F5F3F4FDB
:101B800044E3F701618DC8010E947B079E012F5F2E
:101B90003F4F41E0F7016189C8010E947B079E0128
:101BA0002F5F3F4F48E0F701618DC8010E947B071E
:101BB0009E012F5F3F4F41E0F7016581C8010E9400
:101BC0007B079E012F5F3F4F41E0F701628DC80107
:101BD0000E947B079E012F5F3F4F41E0F701658127
:101BE000C8010E947B079E012F5F3F4F43E0F70132
:101BF000618DC8010E947B079E012F5F3F4F41E02E
:101C0000F7016385C8010E947B079E012F5F3F4F4C
:101C100047E1F701618DC8010E947B079E012F5F9C
:101C20003F4F41E0F7016385C8010E947B079E0199
:101C30002F5F3F4F49E0F701618DC8010E947B078C
:101C40009E012F5F3F4F41E0F7016189C8010E946B
:101C50007B079E012F5F3F4F44E3F701618DC80171
:101C60000E947B079E012F5F3F4F41E0F701618992
:101C7000C8010E947B079E012F5F3F4F48E0F7019C
:101C8000618DC8010E947B079E012F5F3F4F41E09D
:101C9000F7016581C8010E947B079E012F5F3F4FBE
:101CA00041E0F701628DC8010E947B079E012F5F12
:101CB0003F4F41E0F7016581C8010E947B079E010B
:101CC0002F5F3F4F43E0F701618DC8010E947B0702
:101CD0009E012F5F3F4F41E0F7016385C8010E94DD
:101CE0007B079E012F5F3F4F47E1F701618DC801E0
:101CF0000E947B079E012F5F3F4F41E0F701638504
:101D0000C8010E947B079E012F5F3F4F49E0F7010A
:101D1000618DC8010E947B079E012F5F3F4F41E00C
:101D2000F7016189C8010E947B079E012F5F3F4F29
:101D300044E3F701618DC8010E947B079E012F5F7C
:101D40003F4F41E0F7016189C8010E947B079E0176
:101D50002F5F3F4F48E0F701618DC8010E947B076C
:101D60009E012F5F3F4F41E0F7016581C8010E944E
:101D70007B079E012F5F3F4F41E0F701628DC80155
:101D80000E947B079E012F5F3F4F41E0F701658175
:101D9000C8010E947B079E012F5F3F4F43E0F70180
:101DA000618DC8010E947B079E012F5F3F4F41E07C
:101DB000F7016385C8010E947B079E012F5F3F4F9B
:101DC00047E1F701618DC8010E947B079E012F5FEB
:101DD0003F4F41E0F7016385C8010E947B079E01E8
:101DE0002F5F3F4F49E0F701618DC8010E947B07DB
:101DF0009E012F5F3F4F41E0F7016685C8010E94B9
:101E00007B079E012F5F3F4F44E3F7016089C801C4
:101E10000E947B079E012F5F3F4F41E0F7016785DE
:101E2000C8010E947B079E012F5F3F4F48E0F701EA
:101E3000618DC8010E947B079E012F5F3F4F41E0EB
:101E4000F7016581C8010E947B079E012F5F3F4F0C
:101E500041E0F701628DC8010E947B079E012F5F60
:101E60003F4F41E0F7016581C8010E947B079E0159
:101E70002F5F3F4F43E0F701618DC8010E947B0750
:101E80009E012F5F3F4F41E0F7016385C8010E942B
:101E90007B079E012F5F3F4F47E1F701618DC8012E
:101EA0000E947B079E012F5F3F4F41E0F701638552
:101EB000C8010E947B079E012F5F3F4F47E4F70157
:101EC000618DC8010E947B079E012F5F3F4F41E05B
:101ED000F7016581C8010E947B079E012F5F3F4F7C
:101EE00041E0F701628DC8010E947B079E012F5FD0
:101EF0003F4F41E0F7016581C8010E947B079E01C9
:101F00002F5F3F4F43E0F701618DC8010E947B07BF
:101F10009E012F5F3F4F41E0F7016085C8010E949D
:101F20007B079E012F5F3F4F47E1F7016285C801A4
:101F30000E947B079E012F5F3F4F41E0F7016185C3
:101F4000C8010E947B079E012F5F3F4F47E4F701C6
:101F5000618DC8010E947B079E012F5F3F4F41E0CA
:101F6000F7016581C8010E947B079E012F5F3F4FEB
:101F700041E0F701628DC8010E947B079E012F5F3F
:101F80003F4F41E0F7016581C8010E947B079E0138
:101F90002F5F3F4F43E6F701618DC8010E947B0729
:101FA0009E012F5F3F4F41E0F7016581C8010E940C
:101FB0007B079E012F5F3F4F41E0F701628DC80113
:101FC0000E947B079E012F5F3F4F41E0F701658133
:101FD000C8010E947B079E012F5F3F4F43E6F70138
:101FE000618DC8010E947B079E012F5F3F4F41E03A
:101FF000F7016581C8010E947B079E012F5F3F4F5B
:1020000041E0F701628DC8010E947B079E012F5FAE
:102010003F4F41E0F7016281C8010E947B079E01AA
:102020002F5F3F4F43E6F7016481C8010E947B07A1
:102030009E012F5F3F4F41E0F7016381C8010E947D
:102040007B079E012F5F3F4F41E0F701628DC80182
:102050000E947B070F900F90DF91CF911F910F91FE
:10206000FF90EF9008956F927F928F929F92AF9220
:10207000BF92CF92DF92EF92FF920F931F93CF9375
:10208000DF937C01D62EC72E922E8A01812C84E507
:10209000A82E88E0B82E89100FC0DF91CF911F9134
:1020A0000F91FF90EF90DF90CF90BF90AF909F90F7
:1020B0008F907F906F900895F8017080711004C028
:1020C00083940C5F1F4FE7CFC181D281CE32D105FF
:1020D00020F0FDE2CF2F80E0D82FF801838181111D
:1020E00023C0C457DD4FF7014389BE018D2D9C2DC0
:1020F0000E94D7038FE097E20197F1F700C000003C
:10210000612CCA59DF4FF7014189BE018D2D9C2DED
:102110000E94D7038FE097E20197F1F700C000001B
:1021200063946710EECFCCCFF501EC1BFD0BEF01F4
:10213000F7014489BE018D2D9C2D0E94D7038FE0AD
:1021400097E20197F1F700C00000612CC656D10953
:10215000F7014189BE018D2D9C2D0E94D7038FE090
:1021600097E20197F1F700C0000063946710EECF8B
:10217000A7CFEF92FF920F931F93CF93DF9300D0DF
:10218000CDB7DEB77C018B01842F90E0F701658924
:1021900021119CC0F6E64F9FA001112448555E4FC7
:1021A0005A8349839E012F5F3F4F43E0C8010E943D
:1021B0007B0789819A818E599F4F9A8389839E01DB
:1021C0002F5F3F4F41E0F7016689C8010E947B07FE
:1021D0009E012F5F3F4F43E0F701618DC8010E94D0
:1021E0007B079E012F5F3F4F41E0F7016789C801E0
:1021F0000E947B0789819A81805A9F4F9A838983A5
:102200009E012F5F3F4F41E0F7016581C8010E94A9
:102210007B079E012F5F3F4F45E0F701618DC801AD
:102220000E947B079E012F5F3F4F41E0F7016581D0
:10223000C8010E947B0789819A81815A9F4F9A83A6
:1022400089839E012F5F3F4F41E0F701608DC801F8
:102250000E947B079E012F5F3F4F44E0F701618D95
:10226000C8010E947B079E012F5F3F4F41E0F701AD
:10227000608DC8010E947B0789819A818F599F4F89
:102280009A8389839E012F5F3F4F41E0F701678961
:10229000C8010E947B079E012F5F3F4F43E0F7017B
:1022A0006589C8010E947B079E012F5F3F4F41E077
:1022B000F7016689C8010E947B070F900F90DF919C
:1022C000CF911F910F91FF90EF9008952DE030E096
:1022D000281B390B46E6429FC001439F900D1124F5
:1022E00088559E4F9A8389839E012F5F3F4F43E01D
:1022F000C8010E947B0789819A818E599F4F9A83DA
:1023000089839E012F5F3F4F41E0F7016689C80135
:102310000E947B079E012F5F3F4F43E0F701618DD5
:10232000C8010E947B079E012F5F3F4F41E0F701EC
:102330006789C8010E947B0789819A81805A9F4FD3
:102340009A8389839E012F5F3F4F41E0F701608DA3
:10235000C8010E947B079E012F5F3F4F44E0F701B9
:10236000618DC8010E947B079E012F5F3F4F41E0B6
:10237000F701608DC8010E947B0789819A81805A8C
:102380009F4F9A8389839E012F5F3F4F41E0F70162
:102390006581C8010E947B079E012F5F3F4F45E08A
:1023A000F701618DC8010E947B079E012F5F3F4F9F
:1023B00041E0F7016581C8010E947B0789819A810C
:1023C000805A9F4F5DCF7F928F929F92AF92BF9224
:1023D000CF92DF92EF92FF920F931F93CF93DF93F1
:1023E00000D0CDB7DEB75C01762EC72E7A01D22E93
:1023F0004E0182E0880E911CC4010E948C1410E0F2
:1024000000E094E0E90EF11CC801887F8017910775
:10241000D1F5C7010E946F12AE014F5F5F4FB80147
:10242000872D9C2D0E941103698184E0689FB00173
:102430001124655E7F4F6A0D7B1DC4010E94A214AA
:102440008FE493EC0197F1F700C000000F5F1F4F7E
:102450000D359AE01907C1F6DD2029F064ED71E031
:10246000C4010E94A2140F900F90DF91CF911F9191
:102470000F91FF90EF90DF90CF90BF90AF909F9023
:102480008F907F900895C8018C7F8017910721F667
:10249000C7010E945212C0CFFC0171836083428346
:1024A00023830895FC01A081B1814C91228181E0B8
:1024B00090E0BC0102C0660F771F2A95E2F79B01EE
:1024C000209524232C93A081B1812C91338101C0CC
:1024D000880F3A95EAF7809582238C930895FC0142
:1024E000A081B1812C91338181E090E0AC0101C0E9
:1024F000440F3A95EAF7242B2C93A081B1812C91BB
:10250000328101C0880F3A95EAF7809582238C9337
:102510000895FC01A081B1812C91328181E090E08D
:10252000AC0101C0440F3A95EAF7242B2C93A0810B
:10253000B1812C91338101C0880F3A95EAF78095DB
:1025400082238C930895CF93DF93D82FC92F0E94B5
:102550006F128FE19EE40197F1F700C000008D2F0C
:102560009C2F0E9489128FE19EE40197F1F700C031
:102570000000DF91CF910895CF93DF93D82FC92F1B
:102580000E946F122FEF81EE94E021508040904026
:10259000E1F700C000008D2F9C2F0E9452122FEFF8
:1025A00081EE94E0215080409040E1F700C00000AF
:1025B000DF91CF9108958627682F62956827062EB0
:1025C000669566956025062E669560256770082ECF
:1025D000892F669507946795902D862706946795B1
:1025E000902586270895CF93DF93EC018881998108
:1025F0000E9444148FEA92E10197F1F700C00000B5
:10260000888199810E94401487EC99E10197F1F744
:1026100000C00000DF91CF910895CF93DF93EC01CC
:10262000888199810E9444148DE499E00197F1F723
:1026300000C00000888199810E94401487EC99E1D4
:102640000197F1F700C00000DF91CF910895CF937B
:10265000DF93EC01888199810E9444148FEA94E011
:102660000197F1F700C00000888199810E94401411
:1026700087EC99E10197F1F700C00000DF91CF915D
:102680000895EF92FF920F931F93CF93DF93182F2C
:10269000092FD0E0C0E0E62EF12CC7010C2E02C0BD
:1026A000959587950A94E2F780FF0FC0812F902FB0
:1026B0000E940D132196C730D10579F7DF91CF9194
:1026C0001F910F91FF90EF900895812F902F0E94FE
:1026D0002713F0CFEF92FF920F931F93CF93DF93C7
:1026E000182F092FD0E0C0E0E62EF12CC7010C2EE8
:1026F00002C0959587950A94E2F780FF0FC0812F5D
:10270000902F0E940D132196C530D10579F7DF91E6
:10271000CF911F910F91FF90EF900895812F902FEF
:102720000E942713F0CF0F931F93CF93DF93D82FDF
:10273000C92F062F142F0E94F312602F8D2F9C2F6C
:102740000E944113612F8D2F9C2FDF91CF911F91FC
:102750000F910C946A139F92AF92BF92CF92DF9227
:10276000EF92FF920F931F93CF93DF93EC01D42E40
:102770007B01C12C5C0182E0A80EB11CCD100CC005
:10278000DF91CF911F910F91FF90EF90DF90CF904D
:10279000BF90AF909F900895F701908001811381C1
:1027A00040E0692DCE010E94931340E0602FCE01DE
:1027B0000E94931340E0612FCE010E949313692D74
:1027C0008FEF9FEF0E94DB12602F0E94DB12612FC0
:1027D0000E94DB128C01682FC5010E949B14602FA0
:1027E0006F7740E0CE010E949313B801660F672F08
:1027F000661F770B71956F7740E0CE010E949313AF
:10280000B80164E0769F612D7727112440E0CE0166
:102810000E949313C394F4E0EF0EF11CAFCF1F930B
:10282000CF93DF93182FD92FC4E240E060E0812FCF
:102830009D2F0E949313C150C1F7DF91CF911F913B
:102840000895F8945298E89AE9E6F0E08081836070
:1028500080837894089516BC68BD82E584BD84E0C9
:1028600085BD089516BC67BD14BC84E085BD4423B6
:1028700019F084B5826084BD82E080936E00089573
:1028800084B18F7884B90895249A229816BC88E67A
:1028900087BD82E584BD81E085BD85B58B7F85BD23
:1028A00085B58D7F85BD0895F8945298E89AE9E63C
:1028B000F0E080818360808378940895709389002C
:1028C0006093880050938B0040938A0081EA809344
:1028D000800082E08093810010928200089510921F
:1028E0008500109284007093890060938800109294
:1028F000800085E080938100442329F0809181004D
:102900008860809381001092820082E080936F0043
:1029100008951092810008951092C5008FEC809365
:10292000C40080EC8093C00088E18093C10086E001
:102930008093C20008958091C00085FFFCCF609312
:10294000C60008950F931F93CF93DF93182F092F7D
:10295000EB016991611105C0DF91CF911F910F913A
:102960000895812F902F0E949B14F3CF8091C00077
:1029700087FFFCCF8091C6000895CDB7DEB7CA5E51
:10298000D1090FB6F894DEBF0FBECDBFCE01825283
:102990009F4F0E948C14CE0180559F4F0E94AC0522
:1029A00040E06FE0CE0180559F4F0E94CC055E0154
:1029B0002DEDA20EB11CC5010E9454146E018CEDC8
:1029C000C80ED11CC6010E94211487E8E3E0F1E0A3
:1029D0008E010F5F1F4FD80101900D928A95E1F78C
:1029E000CE0185529F4F0E940003C852DF4FD9820B
:1029F000C882C85DD040209ABE0165527F4FC80191
:102A00000E94D10750EB652E712C6C0E7D1E94E058
:102A1000690E711CC3010E9489122FEF89E698E1AB
:102A2000215080409040E1F700C00000C3010E94A7
:102A30005212CF51DF4F19821882C15ED040C1526D
:102A4000DF4F19821882CF5DD040F12C5A2C4B2CCD
:102A5000C751DF4FC882C95ED040C651DF4FD88210
:102A6000CA5ED040C951DF4F0883C75ED040C8510D
:102A7000DF4F1883C85ED04080EB90E08C0F9D1F25
:102A80000196CD51DF4F99838883C35ED04080EBA0
:102A900090E08C0F9D1F0B96CB51DF4F998388835D
:102AA000C55ED04066E0262E312C70EBC72ED12CAF
:102AB000CC0EDD1E92E0C90ED11CE4E0AE2EB12C8E
:102AC00080EB90E08C0F9D1F0996982E892EE09147
:102AD000EA01F091EB01E930F105C8F7EE5EF54E41
:102AE0000C94011800E020E04FEF68ECC6010E9452
:102AF0000A062FE788E391E0215080409040E1F7FB
:102B000000C00000B092EB01A092EA01E0CF8091FA
:102B10000001882369F080910101811109C041E021
:102B200061EA77E0852D942D0E946F1410920001C8
:102B300069E6892D982D0E94A300049B19C0852D5C
:102B4000942D0E94891410920001C6010E941D0755
:102B50002FEF84E39CE0215080409040E1F700C0DB
:102B6000000081E090E09093EB018093EA01AFCF09
:102B7000009BADCF852D942D0E94891410920001E9
:102B8000C6010E941D072FEF84E39CE02150804086
:102B90009040E1F700C0000082E090E0E4CF4EE614
:102BA00068EC70E0892D982D0E94D70000E020E0AD
:102BB0004DE769E6C6010E940A062FEF84E39CE018
:102BC000215080409040E1F700C00000C6010E9403
:102BD0001D072FEF84E39CE0215080409040E1F7F7
:102BE00000C0000000991AC0019918C0029916C0CF
:102BF000039914C0049912C0F3948091010191E0EB
:102C000089278093010190930001F91241C085E06A
:102C100090E09093ED018093EC0144C0F0FC0CC077
:102C20006FE5C6010E94E1062FEF80E792E0215098
:102C300080409040E1F764CF6FEFC6010E944706E5
:102C40002FEF80E792E0215080409040E1F700C0F4
:102C500000006EE6C6010E9447062FEF85EB95E364
:102C6000215080409040E1F700C00000C6010E9462
:102C70001D072FEF84E39CE0215080409040E1F756
:102C800000C0000081E08093000183E090E06BCF02
:102C900092E0F91641F123E0F21609F4B8CF94E07E
:102CA000F91681F16FEFC6010E9423069FE728E322
:102CB00081E0915020408040E1F700C000006EE6C6
:102CC000C6010E9423069FEF25EA8EE09150204026
:102CD0008040E1F700C000004FE56EE6892D982D99
:102CE0000E948D020FCF8091EC019091ED01C152B5
:102CF000DF4F99838883CF5DD0401092ED01109211
:102D0000EC01D0CF8091EC019091ED01CF51DF4FDC
:102D100099838883C15ED040F0CF0091EC0110917F
:102D2000ED0181E08F1508F080E0E82EC751DF4FFC
:102D30002881C95ED040C651DF4F3881CA5ED0407D
:102D40004FE56EE6892D982D0E949401B092EB011B
:102D5000A092EA018091EC019091ED01059690938B
:102D6000ED018093EC01B3CE93E09F1508F066C0AF
:102D70006FEFC6010E9447062FE788E391E02150DC
:102D800080409040E1F700C000006EE6C6010E945E
:102D900023062FEF8DE399E4215080409040E1F726
:102DA00000C0000001E021E04DE760E0C6010E94A4
:102DB0000A062FEF83ED90E3215080409040E1F729
:102DC00000C00000019BFECFC6010E941D072FEF2F
:102DD00084E39CE0215080409040E1F700C0000077
:102DE0006FEFC6010E9423062FE788E391E0215090
:102DF00080409040E1F700C00000009919C001999F
:102E000017C0029915C0039913C0049911C0C601D7
:102E10000E941D072FEF84E39CE0215080409040EA
:102E2000E1F700C000003092EB012092EA014FCEA2
:102E30006EE6892D982D0E94A300DFCF6FE5C601B5
:102E40000E9499068FE59AEE0197F1F759CE852DEC
:102E5000942D0E948914FE01E055FF4F30E020E0E0
:102E60008385882391F1F9013396EE0FFF1FEE0F52
:102E7000FF1F80EB90E08C0F9D1FE80FF91F8081F2
:102E80009181220F331F220F331FA0EBB0E0AC0F54
:102E9000BD1FA20FB31F1E962C91C152DF4F688138
:102EA0007981CF5DD040222331F0CF51DF4F68814F
:102EB0007981C15ED0400E94ED1783E2689F602D4A
:102EC000112470E071836083AECF2F5F3F4F349643
:102ED0002630310529F6A7CFC3010E948912189B1D
:102EE000F6CD88E090E03FCEF894C552DF4F888160
:102EF000CB5DD040C857DF4F8883C858D04026E00C
:102F0000CB51DF4F48815981C55ED040BE01685723
:102F10007F4FC951DF4F8881C75ED040C851DF4F16
:102F20009881C85ED0400E943310CE0188579F4FD1
:102F30000E94F60288E2FE01E055FF4FDE01A8572D
:102F4000BF4F01900D928A95E1F720E0AE014857FE
:102F50005F4FBE0165527F4FC951DF4F8881C75E09
:102F6000D040C851DF4F9881C85ED0400E94E31125
:102F7000CE0188579F4F0E94F60255CFF894CD514D
:102F8000DF4F88819981C35ED0400E940405CD51F6
:102F9000DF4F88819981C35ED0400E944405C30100
:102FA0000E9452129FEF23ED80E391502040804019
:102FB000E1F700C0000046E0CB51DF4F6881798126
:102FC000C55ED040CE0188529F4F0E94AB13CE0108
:102FD00088529F4F0E940F1426CFAA1BBB1B51E1A2
:102FE00007C0AA1FBB1FA617B70710F0A61BB70B79
:102FF000881F991F5A95A9F780959095BC01CD011E
:103000000895EE0FFF1F0590F491E02D099450589C
:10301000BB27AA270E941F180C9469190E945B19EC
:1030200038F00E94621920F039F49F3F19F426F419
:103030000C9458190EF4E095E7FB0C945219E92F03
:103040000E947A1958F3BA17620773078407950725
:1030500020F079F4A6F50C949C190EF4E0950B2E53
:10306000BA2FA02D0B01B90190010C01CA01A001DA
:103070001124FF27591B99F0593F50F4503E68F135
:103080001A16F040A22F232F342F4427585FF3CF76
:10309000469537952795A795F0405395C9F77EF447
:1030A0001F16BA0B620B730B840BBAF09150A1F090
:1030B000FF0FBB1F661F771F881FC2F70EC0BA0F16
:1030C000621F731F841F48F4879577956795B7959E
:1030D000F7959E3F08F0B0CF9395880F08F0992799
:1030E000EE0F9795879508950E9488180C9469199A
:1030F0000E94621958F00E945B1940F029F45F3F6A
:1031000029F00C94521951110C949D190C945819D2
:103110000E947A1968F39923B1F3552391F3951B13
:10312000550BBB27AA2762177307840738F09F5FE8
:103130005F4F220F331F441FAA1FA9F335D00E2E55
:103140003AF0E0E832D091505040E695001CCAF7C2
:103150002BD0FE2F29D0660F771F881FBB1F261785
:1031600037074807AB07B0E809F0BB0B802DBF015C
:10317000FF2793585F4F3AF09E3F510578F00C942B
:1031800052190C949D195F3FE4F3983ED4F3869551
:1031900077956795B795F7959F5FC9F7880F911D4C
:1031A0009695879597F90895E1E0660F771F881F38
:1031B000BB1F621773078407BA0720F0621B730BEB
:1031C000840BBA0BEE1F88F7E09508950E948219D0
:1031D00088F09F5798F0B92F9927B751B0F0E1F0D8
:1031E000660F771F881F991F1AF0BA95C9F714C088
:1031F000B13091F00E949C19B1E008950C949C1993
:10320000672F782F8827B85F39F0B93FCCF38695C0
:1032100077956795B395D9F73EF49095809570951D
:1032200061957F4F8F4F9F4F0895E89409C097FB9A
:103230003EF490958095709561957F4F8F4F9F4F8D
:103240009923A9F0F92F96E9BB279395F6958795D1
:1032500077956795B795F111F8CFFAF4BB0F11F494
:1032600060FF1BC06F5F7F4F8F4F9F4F16C088233B
:1032700011F096E911C0772321F09EE8872F762F71
:1032800005C0662371F096E8862F70E060E02AF0B2
:103290009A95660F771F881FDAF7880F969587959E
:1032A00097F9089597F99F6780E870E060E00895C6
:1032B0009FEF80EC089500240A941616170618064E
:1032C0000906089500240A9412161306140605062A
:1032D0000895092E0394000C11F4882352F0BB0FBB
:1032E00040F4BF2B11F460FF04C06F5F7F4F8F4F1E
:1032F0009F4F089557FD9058440F551F59F05F3F59
:1033000071F04795880F97FB991F61F09F3F79F007
:1033100087950895121613061406551FF2CF469589
:10332000F1DF08C0161617061806991FF1CF86950B
:103330007105610508940895E894BB2766277727EF
:10334000CB0197F908950E94B6190C9469190E944F
:103350005B1938F00E94621920F0952311F00C944B
:1033600052190C94581911240C949D190E947A1921
:1033700070F3959FC1F3950F50E0551F629FF001C8
:10338000729FBB27F00DB11D639FAA27F00DB11DE1
:10339000AA1F649F6627B00DA11D661F829F22276A
:1033A000B00DA11D621F739FB00DA11D621F839FF1
:1033B000A00D611D221F749F3327A00D611D231FC7
:1033C000849F600D211D822F762F6A2F11249F5715
:1033D00050409AF0F1F088234AF0EE0FFF1FBB1F18
:1033E000661F771F881F91505040A9F79E3F5105D7
:1033F00080F00C9452190C949D195F3FE4F3983EB1
:10340000D4F3869577956795B795F795E7959F5F80
:10341000C1F7FE2B880F911D9695879597F9089512
:10342000F894FFCF7215CF15B4168D168715271790
:063430006C17BE177417B3
:103436000101A0000102030405060708090A0B0C96
:103446000D0E0F101112131415161718191AE294EF
:103456008C00E2949000E2949400E2949800E29446
:103466008000E2948200E2948F00E2949300E2945A
:103476009700E2949B00E2948100E2948300E29537
:103486009400E2959700E2959A00E2959D00E295F8
:103496009000E2959100E295A300E295A600E295E0
:1034A600A9005F000000E295B100E295B200E29645
:1034B600A400200000000A0000006E0075007B00DA
:1034C60083008B0093009C00A500AF00B900C400E8
:1034D600D000DC00E900F7000601150126013701DE
:1034E6004A015D01720188019F01B801D201EE0116
:1034F6000B022A024B026E029302BA02E202100388
:103506003F0370034E4F4D20445520524F424F54B7
:0A3516003A2057414C4C2D500A009A
:00000001FF
